{
  "contractName": "Appointments",
  "abi": [
    {
      "anonymous": false,
      "inputs": [
        {
          "indexed": false,
          "internalType": "string",
          "name": "patient",
          "type": "string"
        },
        {
          "indexed": false,
          "internalType": "string",
          "name": "doctor",
          "type": "string"
        },
        {
          "indexed": false,
          "internalType": "uint256",
          "name": "doctorNo",
          "type": "uint256"
        },
        {
          "indexed": false,
          "internalType": "uint256",
          "name": "slotNo",
          "type": "uint256"
        },
        {
          "indexed": false,
          "internalType": "string",
          "name": "date",
          "type": "string"
        },
        {
          "indexed": false,
          "internalType": "uint256",
          "name": "timestamp",
          "type": "uint256"
        }
      ],
      "name": "bookAppointment",
      "type": "event"
    },
    {
      "inputs": [
        {
          "internalType": "uint256",
          "name": "noOfDoctors",
          "type": "uint256"
        },
        {
          "internalType": "uint256",
          "name": "noOfSlots",
          "type": "uint256"
        }
      ],
      "name": "setDoctorsAndSlots",
      "outputs": [],
      "stateMutability": "nonpayable",
      "type": "function"
    },
    {
      "inputs": [
        {
          "internalType": "string",
          "name": "patient",
          "type": "string"
        },
        {
          "internalType": "string",
          "name": "doctor",
          "type": "string"
        },
        {
          "internalType": "uint256",
          "name": "doctorNo",
          "type": "uint256"
        },
        {
          "internalType": "uint256",
          "name": "slotNo",
          "type": "uint256"
        },
        {
          "internalType": "string",
          "name": "date",
          "type": "string"
        }
      ],
      "name": "addToBlockchain",
      "outputs": [],
      "stateMutability": "nonpayable",
      "type": "function"
    },
    {
      "inputs": [],
      "name": "getAllAppointments",
      "outputs": [
        {
          "components": [
            {
              "internalType": "string",
              "name": "patient",
              "type": "string"
            },
            {
              "internalType": "string",
              "name": "doctor",
              "type": "string"
            },
            {
              "internalType": "uint256",
              "name": "slotNo",
              "type": "uint256"
            },
            {
              "internalType": "uint256",
              "name": "doctorNo",
              "type": "uint256"
            },
            {
              "internalType": "string",
              "name": "date",
              "type": "string"
            },
            {
              "internalType": "uint256",
              "name": "timestamp",
              "type": "uint256"
            }
          ],
          "internalType": "struct Appointments.Appointment[]",
          "name": "",
          "type": "tuple[]"
        }
      ],
      "stateMutability": "view",
      "type": "function",
      "constant": true
    },
    {
      "inputs": [],
      "name": "getAppointmentsCount",
      "outputs": [
        {
          "internalType": "uint256",
          "name": "",
          "type": "uint256"
        }
      ],
      "stateMutability": "view",
      "type": "function",
      "constant": true
    }
  ],
  "bytecode": "0x608060405234801561001057600080fd5b506113ce806100206000396000f3fe608060405234801561001057600080fd5b506004361061004c5760003560e01c8063411b4ace146100515780634718d1ea1461006f5780634e04b95d1461008b5780637933570c146100a7575b600080fd5b6100596100c5565b60405161006691906108ef565b60405180910390f35b6100896004803603810190610084919061094a565b6100ce565b005b6100a560048036038101906100a09190610ad0565b610258565b005b6100af610534565b6040516100bc9190610d86565b60405180910390f35b60008054905090565b81600281905550806003819055508167ffffffffffffffff8111156100f6576100f56109a5565b5b60405190808252806020026020018201604052801561012957816020015b60608152602001906001900390816101145790505b506001908051906020019061013f929190610767565b5060005b82811015610253578167ffffffffffffffff811115610165576101646109a5565b5b6040519080825280602002602001820160405280156101935781602001602082028036833780820191505090505b50600182815481106101a8576101a7610da8565b5b9060005260206000200190805190602001906101c59291906107c7565b5060005b8281101561023f576000600183815481106101e7576101e6610da8565b5b90600052602060002001828154811061020357610202610da8565b5b90600052602060002090602091828204019190066101000a81548160ff021916908315150217905550808061023790610e06565b9150506101c9565b50808061024b90610e06565b915050610143565b505050565b600354821115801561026a5750600082115b6102a9576040517f08c379a00000000000000000000000000000000000000000000000000000000081526004016102a090610eab565b60405180910390fd5b60025483111580156102bb5750600083115b6102fa576040517f08c379a00000000000000000000000000000000000000000000000000000000081526004016102f190610f17565b60405180910390fd5b600015156001808561030c9190610f37565b8154811061031d5761031c610da8565b5b906000526020600020016001846103349190610f37565b8154811061034557610344610da8565b5b90600052602060002090602091828204019190069054906101000a900460ff161515146103a7576040517f08c379a000000000000000000000000000000000000000000000000000000000815260040161039e90610fb7565b60405180910390fd5b60016000808282546103b99190610fd7565b925050819055506001806001856103d09190610f37565b815481106103e1576103e0610da8565b5b906000526020600020016001846103f89190610f37565b8154811061040957610408610da8565b5b90600052602060002090602091828204019190066101000a81548160ff02191690831515021790555060046040518060c00160405280878152602001868152602001848152602001858152602001838152602001428152509080600181540180825580915050600190039060005260206000209060060201600090919091909150600082015181600001908161049f9190611217565b5060208201518160010190816104b59190611217565b50604082015181600201556060820151816003015560808201518160040190816104df9190611217565b5060a0820151816005015550507fb0fd26bd45dd692799cf83439d7927676ceca0f73bc0330ad899f993ed25743185858585854260405161052596959493929190611322565b60405180910390a15050505050565b60606004805480602002602001604051908101604052809291908181526020016000905b8282101561075e57838290600052602060002090600602016040518060c001604052908160008201805461058b9061103a565b80601f01602080910402602001604051908101604052809291908181526020018280546105b79061103a565b80156106045780601f106105d957610100808354040283529160200191610604565b820191906000526020600020905b8154815290600101906020018083116105e757829003601f168201915b5050505050815260200160018201805461061d9061103a565b80601f01602080910402602001604051908101604052809291908181526020018280546106499061103a565b80156106965780601f1061066b57610100808354040283529160200191610696565b820191906000526020600020905b81548152906001019060200180831161067957829003601f168201915b5050505050815260200160028201548152602001600382015481526020016004820180546106c39061103a565b80601f01602080910402602001604051908101604052809291908181526020018280546106ef9061103a565b801561073c5780601f106107115761010080835404028352916020019161073c565b820191906000526020600020905b81548152906001019060200180831161071f57829003601f168201915b5050505050815260200160058201548152505081526020019060010190610558565b50505050905090565b8280548282559060005260206000209081019282156107b6579160200282015b828111156107b55782518290805190602001906107a59291906107c7565b5091602001919060010190610787565b5b5090506107c3919061086d565b5090565b82805482825590600052602060002090601f0160209004810192821561085c5791602002820160005b8382111561082d57835183826101000a81548160ff02191690831515021790555092602001926001016020816000010492830192600103026107f0565b801561085a5782816101000a81549060ff021916905560010160208160000104928301926001030261082d565b505b5090506108699190610891565b5090565b5b8082111561088d576000818161088491906108ae565b5060010161086e565b5090565b5b808211156108aa576000816000905550600101610892565b5090565b50805460008255601f0160209004906000526020600020908101906108d39190610891565b50565b6000819050919050565b6108e9816108d6565b82525050565b600060208201905061090460008301846108e0565b92915050565b6000604051905090565b600080fd5b600080fd5b610927816108d6565b811461093257600080fd5b50565b6000813590506109448161091e565b92915050565b6000806040838503121561096157610960610914565b5b600061096f85828601610935565b925050602061098085828601610935565b9150509250929050565b600080fd5b600080fd5b6000601f19601f8301169050919050565b7f4e487b7100000000000000000000000000000000000000000000000000000000600052604160045260246000fd5b6109dd82610994565b810181811067ffffffffffffffff821117156109fc576109fb6109a5565b5b80604052505050565b6000610a0f61090a565b9050610a1b82826109d4565b919050565b600067ffffffffffffffff821115610a3b57610a3a6109a5565b5b610a4482610994565b9050602081019050919050565b82818337600083830152505050565b6000610a73610a6e84610a20565b610a05565b905082815260208101848484011115610a8f57610a8e61098f565b5b610a9a848285610a51565b509392505050565b600082601f830112610ab757610ab661098a565b5b8135610ac7848260208601610a60565b91505092915050565b600080600080600060a08688031215610aec57610aeb610914565b5b600086013567ffffffffffffffff811115610b0a57610b09610919565b5b610b1688828901610aa2565b955050602086013567ffffffffffffffff811115610b3757610b36610919565b5b610b4388828901610aa2565b9450506040610b5488828901610935565b9350506060610b6588828901610935565b925050608086013567ffffffffffffffff811115610b8657610b85610919565b5b610b9288828901610aa2565b9150509295509295909350565b600081519050919050565b600082825260208201905092915050565b6000819050602082019050919050565b600081519050919050565b600082825260208201905092915050565b60005b83811015610c05578082015181840152602081019050610bea565b60008484015250505050565b6000610c1c82610bcb565b610c268185610bd6565b9350610c36818560208601610be7565b610c3f81610994565b840191505092915050565b610c53816108d6565b82525050565b600060c0830160008301518482036000860152610c768282610c11565b91505060208301518482036020860152610c908282610c11565b9150506040830151610ca56040860182610c4a565b506060830151610cb86060860182610c4a565b5060808301518482036080860152610cd08282610c11565b91505060a0830151610ce560a0860182610c4a565b508091505092915050565b6000610cfc8383610c59565b905092915050565b6000602082019050919050565b6000610d1c82610b9f565b610d268185610baa565b935083602082028501610d3885610bbb565b8060005b85811015610d745784840389528151610d558582610cf0565b9450610d6083610d04565b925060208a01995050600181019050610d3c565b50829750879550505050505092915050565b60006020820190508181036000830152610da08184610d11565b905092915050565b7f4e487b7100000000000000000000000000000000000000000000000000000000600052603260045260246000fd5b7f4e487b7100000000000000000000000000000000000000000000000000000000600052601160045260246000fd5b6000610e11826108d6565b91507fffffffffffffffffffffffffffffffffffffffffffffffffffffffffffffffff8203610e4357610e42610dd7565b5b600182019050919050565b600082825260208201905092915050565b7f496e76616c696420736c6f74206e756d62657200000000000000000000000000600082015250565b6000610e95601383610e4e565b9150610ea082610e5f565b602082019050919050565b60006020820190508181036000830152610ec481610e88565b9050919050565b7f496e76616c696420646f63746f72206e756d6265720000000000000000000000600082015250565b6000610f01601583610e4e565b9150610f0c82610ecb565b602082019050919050565b60006020820190508181036000830152610f3081610ef4565b9050919050565b6000610f42826108d6565b9150610f4d836108d6565b9250828203905081811115610f6557610f64610dd7565b5b92915050565b7f536c6f7420616c72656164792066696c6c656400000000000000000000000000600082015250565b6000610fa1601383610e4e565b9150610fac82610f6b565b602082019050919050565b60006020820190508181036000830152610fd081610f94565b9050919050565b6000610fe2826108d6565b9150610fed836108d6565b925082820190508082111561100557611004610dd7565b5b92915050565b7f4e487b7100000000000000000000000000000000000000000000000000000000600052602260045260246000fd5b6000600282049050600182168061105257607f821691505b6020821081036110655761106461100b565b5b50919050565b60008190508160005260206000209050919050565b60006020601f8301049050919050565b600082821b905092915050565b6000600883026110cd7fffffffffffffffffffffffffffffffffffffffffffffffffffffffffffffffff82611090565b6110d78683611090565b95508019841693508086168417925050509392505050565b6000819050919050565b600061111461110f61110a846108d6565b6110ef565b6108d6565b9050919050565b6000819050919050565b61112e836110f9565b61114261113a8261111b565b84845461109d565b825550505050565b600090565b61115761114a565b611162818484611125565b505050565b5b818110156111865761117b60008261114f565b600181019050611168565b5050565b601f8211156111cb5761119c8161106b565b6111a584611080565b810160208510156111b4578190505b6111c86111c085611080565b830182611167565b50505b505050565b600082821c905092915050565b60006111ee600019846008026111d0565b1980831691505092915050565b600061120783836111dd565b9150826002028217905092915050565b61122082610bcb565b67ffffffffffffffff811115611239576112386109a5565b5b611243825461103a565b61124e82828561118a565b600060209050601f831160018114611281576000841561126f578287015190505b61127985826111fb565b8655506112e1565b601f19841661128f8661106b565b60005b828110156112b757848901518255600182019150602085019450602081019050611292565b868310156112d457848901516112d0601f8916826111dd565b8355505b6001600288020188555050505b505050505050565b60006112f482610bcb565b6112fe8185610e4e565b935061130e818560208601610be7565b61131781610994565b840191505092915050565b600060c082019050818103600083015261133c81896112e9565b9050818103602083015261135081886112e9565b905061135f60408301876108e0565b61136c60608301866108e0565b818103608083015261137e81856112e9565b905061138d60a08301846108e0565b97965050505050505056fea264697066735822122093fd5d95649734662b63a95f06aa46184e54b80069629e67b5d0b3bcd236ff4c64736f6c63430008120033",
  "immutableReferences": {},
  "source": "// SPDX-License-Identifier: UNLICENSED\r\npragma solidity ^0.8.9;\r\n\r\ncontract Appointments {\r\n\r\n    uint256 bookingsCounter;\r\n    bool[][] slotsFilled;\r\n    uint doctorsCount;\r\n    uint slotsCount;\r\n    struct Appointment {\r\n        string patient;\r\n        string doctor;\r\n        uint slotNo;\r\n        uint doctorNo;\r\n        string date;\r\n        uint256 timestamp;\r\n    }\r\n\r\n    event bookAppointment(string patient, string doctor, uint doctorNo, uint slotNo, string date, uint256 timestamp);\r\n\r\n    Appointment[] appointments;\r\n\r\n    function setDoctorsAndSlots(uint noOfDoctors, uint noOfSlots) public{\r\n        doctorsCount = noOfDoctors;\r\n        slotsCount = noOfSlots;\r\n        slotsFilled = new bool[][](noOfDoctors);\r\n        for (uint i = 0; i < noOfDoctors; i++) {\r\n            slotsFilled[i] = new bool[](noOfSlots);\r\n            for (uint j = 0; j < noOfSlots; j++) {\r\n                slotsFilled[i][j] = false;\r\n            }\r\n        }\r\n    }\r\n\r\n    function addToBlockchain(string memory patient,string memory doctor, uint doctorNo, uint slotNo, string memory date) public {\r\n        require(slotNo<=slotsCount && slotNo > 0,\"Invalid slot number\");\r\n        require(doctorNo<=doctorsCount && doctorNo > 0,\"Invalid doctor number\");\r\n        require(slotsFilled[doctorNo-1][slotNo-1]==false,\"Slot already filled\");\r\n        bookingsCounter+=1;\r\n        slotsFilled[doctorNo-1][slotNo-1]=true;\r\n        appointments.push(Appointment(patient, doctor, slotNo, doctorNo, date, block.timestamp));\r\n\r\n        emit bookAppointment(patient, doctor, doctorNo, slotNo, date, block.timestamp);\r\n    } \r\n\r\n    function getAllAppointments() public view returns (Appointment[] memory) {\r\n        return appointments;\r\n    } \r\n\r\n    function getAppointmentsCount() public view returns (uint256) {\r\n        return bookingsCounter;\r\n    } \r\n\r\n}",
  "sourcePath": "C:\\Users\\Mahita\\Desktop\\COLLEGE\\SEM 6\\MINI PROJECT\\Healthcare-dapp\\Healthcare-dApp\\smart_contracts\\contracts\\Appointments.sol",
  "compiler": {
    "name": "solc",
    "version": "0.8.18+commit.87f61d96.Emscripten.clang"
  },
  "schemaVersion": "3.4.12",
  "updatedAt": "2023-04-11T08:46:57.687Z",
  "networkType": "ethereum",
  "devdoc": {
    "kind": "dev",
    "methods": {},
    "version": 1
  },
  "userdoc": {
    "kind": "user",
    "methods": {},
    "version": 1
  }
}