{
  "contractName": "Appointments",
  "abi": [
    {
      "anonymous": false,
      "inputs": [
        {
          "indexed": false,
          "internalType": "address",
          "name": "sender",
          "type": "address"
        },
        {
          "indexed": false,
          "internalType": "string",
          "name": "patient",
          "type": "string"
        },
        {
          "indexed": false,
          "internalType": "string",
          "name": "doctor",
          "type": "string"
        },
        {
          "indexed": false,
          "internalType": "uint256",
          "name": "doctorNo",
          "type": "uint256"
        },
        {
          "indexed": false,
          "internalType": "uint256",
          "name": "slotNo",
          "type": "uint256"
        },
        {
          "indexed": false,
          "internalType": "string",
          "name": "date",
          "type": "string"
        },
        {
          "indexed": false,
          "internalType": "uint256",
          "name": "timestamp",
          "type": "uint256"
        }
      ],
      "name": "bookAppointment",
      "type": "event"
    },
    {
      "inputs": [
        {
          "internalType": "uint256",
          "name": "noOfDoctors",
          "type": "uint256"
        },
        {
          "internalType": "uint256",
          "name": "noOfSlots",
          "type": "uint256"
        }
      ],
      "name": "setDoctorsAndSlots",
      "outputs": [],
      "stateMutability": "nonpayable",
      "type": "function"
    },
    {
      "inputs": [
        {
          "internalType": "string",
          "name": "patient",
          "type": "string"
        },
        {
          "internalType": "string",
          "name": "doctor",
          "type": "string"
        },
        {
          "internalType": "uint256",
          "name": "doctorNo",
          "type": "uint256"
        },
        {
          "internalType": "uint256",
          "name": "slotNo",
          "type": "uint256"
        },
        {
          "internalType": "string",
          "name": "date",
          "type": "string"
        }
      ],
      "name": "addToBlockchain",
      "outputs": [],
      "stateMutability": "nonpayable",
      "type": "function"
    },
    {
      "inputs": [],
      "name": "getAllAppointments",
      "outputs": [
        {
          "components": [
            {
              "internalType": "address",
              "name": "sender",
              "type": "address"
            },
            {
              "internalType": "string",
              "name": "patient",
              "type": "string"
            },
            {
              "internalType": "string",
              "name": "doctor",
              "type": "string"
            },
            {
              "internalType": "uint256",
              "name": "slotNo",
              "type": "uint256"
            },
            {
              "internalType": "uint256",
              "name": "doctorNo",
              "type": "uint256"
            },
            {
              "internalType": "string",
              "name": "date",
              "type": "string"
            },
            {
              "internalType": "uint256",
              "name": "timestamp",
              "type": "uint256"
            }
          ],
          "internalType": "struct Appointments.Appointment[]",
          "name": "",
          "type": "tuple[]"
        }
      ],
      "stateMutability": "view",
      "type": "function",
      "constant": true
    },
    {
      "inputs": [],
      "name": "getAppointmentsCount",
      "outputs": [
        {
          "internalType": "uint256",
          "name": "",
          "type": "uint256"
        }
      ],
      "stateMutability": "view",
      "type": "function",
      "constant": true
    }
  ],
  "bytecode": "0x608060405234801561001057600080fd5b506114fa806100206000396000f3fe608060405234801561001057600080fd5b506004361061004c5760003560e01c8063411b4ace146100515780634718d1ea1461006f5780634e04b95d1461008b5780637933570c146100a7575b600080fd5b6100596100c5565b60405161006691906109aa565b60405180910390f35b61008960048036038101906100849190610a05565b6100ce565b005b6100a560048036038101906100a09190610b8b565b610258565b005b6100af610599565b6040516100bc9190610e95565b60405180910390f35b60008054905090565b81600281905550806003819055508167ffffffffffffffff8111156100f6576100f5610a60565b5b60405190808252806020026020018201604052801561012957816020015b60608152602001906001900390816101145790505b506001908051906020019061013f929190610822565b5060005b82811015610253578167ffffffffffffffff81111561016557610164610a60565b5b6040519080825280602002602001820160405280156101935781602001602082028036833780820191505090505b50600182815481106101a8576101a7610eb7565b5b9060005260206000200190805190602001906101c5929190610882565b5060005b8281101561023f576000600183815481106101e7576101e6610eb7565b5b90600052602060002001828154811061020357610202610eb7565b5b90600052602060002090602091828204019190066101000a81548160ff021916908315150217905550808061023790610f15565b9150506101c9565b50808061024b90610f15565b915050610143565b505050565b600354821115801561026a5750600082115b6102a9576040517f08c379a00000000000000000000000000000000000000000000000000000000081526004016102a090610fba565b60405180910390fd5b60025483111580156102bb5750600083115b6102fa576040517f08c379a00000000000000000000000000000000000000000000000000000000081526004016102f190611026565b60405180910390fd5b600015156001808561030c9190611046565b8154811061031d5761031c610eb7565b5b906000526020600020016001846103349190611046565b8154811061034557610344610eb7565b5b90600052602060002090602091828204019190069054906101000a900460ff161515146103a7576040517f08c379a000000000000000000000000000000000000000000000000000000000815260040161039e906110c6565b60405180910390fd5b60016000808282546103b991906110e6565b925050819055506001806001856103d09190611046565b815481106103e1576103e0610eb7565b5b906000526020600020016001846103f89190611046565b8154811061040957610408610eb7565b5b90600052602060002090602091828204019190066101000a81548160ff02191690831515021790555060046040518060e001604052803373ffffffffffffffffffffffffffffffffffffffff16815260200187815260200186815260200184815260200185815260200183815260200142815250908060018154018082558091505060019003906000526020600020906007020160009091909190915060008201518160000160006101000a81548173ffffffffffffffffffffffffffffffffffffffff021916908373ffffffffffffffffffffffffffffffffffffffff16021790555060208201518160010190816105029190611326565b5060408201518160020190816105189190611326565b50606082015181600301556080820151816004015560a08201518160050190816105429190611326565b5060c0820151816006015550507f20ef6b4444ee24eb7c48b102553981c1d132241b2267de03ac44073cbc82def13386868686864260405161058a9796959493929190611440565b60405180910390a15050505050565b60606004805480602002602001604051908101604052809291908181526020016000905b8282101561081957838290600052602060002090600702016040518060e00160405290816000820160009054906101000a900473ffffffffffffffffffffffffffffffffffffffff1673ffffffffffffffffffffffffffffffffffffffff1673ffffffffffffffffffffffffffffffffffffffff16815260200160018201805461064690611149565b80601f016020809104026020016040519081016040528092919081815260200182805461067290611149565b80156106bf5780601f10610694576101008083540402835291602001916106bf565b820191906000526020600020905b8154815290600101906020018083116106a257829003601f168201915b505050505081526020016002820180546106d890611149565b80601f016020809104026020016040519081016040528092919081815260200182805461070490611149565b80156107515780601f1061072657610100808354040283529160200191610751565b820191906000526020600020905b81548152906001019060200180831161073457829003601f168201915b50505050508152602001600382015481526020016004820154815260200160058201805461077e90611149565b80601f01602080910402602001604051908101604052809291908181526020018280546107aa90611149565b80156107f75780601f106107cc576101008083540402835291602001916107f7565b820191906000526020600020905b8154815290600101906020018083116107da57829003601f168201915b50505050508152602001600682015481525050815260200190600101906105bd565b50505050905090565b828054828255906000526020600020908101928215610871579160200282015b82811115610870578251829080519060200190610860929190610882565b5091602001919060010190610842565b5b50905061087e9190610928565b5090565b82805482825590600052602060002090601f016020900481019282156109175791602002820160005b838211156108e857835183826101000a81548160ff02191690831515021790555092602001926001016020816000010492830192600103026108ab565b80156109155782816101000a81549060ff02191690556001016020816000010492830192600103026108e8565b505b509050610924919061094c565b5090565b5b80821115610948576000818161093f9190610969565b50600101610929565b5090565b5b8082111561096557600081600090555060010161094d565b5090565b50805460008255601f01602090049060005260206000209081019061098e919061094c565b50565b6000819050919050565b6109a481610991565b82525050565b60006020820190506109bf600083018461099b565b92915050565b6000604051905090565b600080fd5b600080fd5b6109e281610991565b81146109ed57600080fd5b50565b6000813590506109ff816109d9565b92915050565b60008060408385031215610a1c57610a1b6109cf565b5b6000610a2a858286016109f0565b9250506020610a3b858286016109f0565b9150509250929050565b600080fd5b600080fd5b6000601f19601f8301169050919050565b7f4e487b7100000000000000000000000000000000000000000000000000000000600052604160045260246000fd5b610a9882610a4f565b810181811067ffffffffffffffff82111715610ab757610ab6610a60565b5b80604052505050565b6000610aca6109c5565b9050610ad68282610a8f565b919050565b600067ffffffffffffffff821115610af657610af5610a60565b5b610aff82610a4f565b9050602081019050919050565b82818337600083830152505050565b6000610b2e610b2984610adb565b610ac0565b905082815260208101848484011115610b4a57610b49610a4a565b5b610b55848285610b0c565b509392505050565b600082601f830112610b7257610b71610a45565b5b8135610b82848260208601610b1b565b91505092915050565b600080600080600060a08688031215610ba757610ba66109cf565b5b600086013567ffffffffffffffff811115610bc557610bc46109d4565b5b610bd188828901610b5d565b955050602086013567ffffffffffffffff811115610bf257610bf16109d4565b5b610bfe88828901610b5d565b9450506040610c0f888289016109f0565b9350506060610c20888289016109f0565b925050608086013567ffffffffffffffff811115610c4157610c406109d4565b5b610c4d88828901610b5d565b9150509295509295909350565b600081519050919050565b600082825260208201905092915050565b6000819050602082019050919050565b600073ffffffffffffffffffffffffffffffffffffffff82169050919050565b6000610cb182610c86565b9050919050565b610cc181610ca6565b82525050565b600081519050919050565b600082825260208201905092915050565b60005b83811015610d01578082015181840152602081019050610ce6565b60008484015250505050565b6000610d1882610cc7565b610d228185610cd2565b9350610d32818560208601610ce3565b610d3b81610a4f565b840191505092915050565b610d4f81610991565b82525050565b600060e083016000830151610d6d6000860182610cb8565b5060208301518482036020860152610d858282610d0d565b91505060408301518482036040860152610d9f8282610d0d565b9150506060830151610db46060860182610d46565b506080830151610dc76080860182610d46565b5060a083015184820360a0860152610ddf8282610d0d565b91505060c0830151610df460c0860182610d46565b508091505092915050565b6000610e0b8383610d55565b905092915050565b6000602082019050919050565b6000610e2b82610c5a565b610e358185610c65565b935083602082028501610e4785610c76565b8060005b85811015610e835784840389528151610e648582610dff565b9450610e6f83610e13565b925060208a01995050600181019050610e4b565b50829750879550505050505092915050565b60006020820190508181036000830152610eaf8184610e20565b905092915050565b7f4e487b7100000000000000000000000000000000000000000000000000000000600052603260045260246000fd5b7f4e487b7100000000000000000000000000000000000000000000000000000000600052601160045260246000fd5b6000610f2082610991565b91507fffffffffffffffffffffffffffffffffffffffffffffffffffffffffffffffff8203610f5257610f51610ee6565b5b600182019050919050565b600082825260208201905092915050565b7f496e76616c696420736c6f74206e756d62657200000000000000000000000000600082015250565b6000610fa4601383610f5d565b9150610faf82610f6e565b602082019050919050565b60006020820190508181036000830152610fd381610f97565b9050919050565b7f496e76616c696420646f63746f72206e756d6265720000000000000000000000600082015250565b6000611010601583610f5d565b915061101b82610fda565b602082019050919050565b6000602082019050818103600083015261103f81611003565b9050919050565b600061105182610991565b915061105c83610991565b925082820390508181111561107457611073610ee6565b5b92915050565b7f536c6f7420616c72656164792066696c6c656400000000000000000000000000600082015250565b60006110b0601383610f5d565b91506110bb8261107a565b602082019050919050565b600060208201905081810360008301526110df816110a3565b9050919050565b60006110f182610991565b91506110fc83610991565b925082820190508082111561111457611113610ee6565b5b92915050565b7f4e487b7100000000000000000000000000000000000000000000000000000000600052602260045260246000fd5b6000600282049050600182168061116157607f821691505b6020821081036111745761117361111a565b5b50919050565b60008190508160005260206000209050919050565b60006020601f8301049050919050565b600082821b905092915050565b6000600883026111dc7fffffffffffffffffffffffffffffffffffffffffffffffffffffffffffffffff8261119f565b6111e6868361119f565b95508019841693508086168417925050509392505050565b6000819050919050565b600061122361121e61121984610991565b6111fe565b610991565b9050919050565b6000819050919050565b61123d83611208565b6112516112498261122a565b8484546111ac565b825550505050565b600090565b611266611259565b611271818484611234565b505050565b5b818110156112955761128a60008261125e565b600181019050611277565b5050565b601f8211156112da576112ab8161117a565b6112b48461118f565b810160208510156112c3578190505b6112d76112cf8561118f565b830182611276565b50505b505050565b600082821c905092915050565b60006112fd600019846008026112df565b1980831691505092915050565b600061131683836112ec565b9150826002028217905092915050565b61132f82610cc7565b67ffffffffffffffff81111561134857611347610a60565b5b6113528254611149565b61135d828285611299565b600060209050601f831160018114611390576000841561137e578287015190505b611388858261130a565b8655506113f0565b601f19841661139e8661117a565b60005b828110156113c6578489015182556001820191506020850194506020810190506113a1565b868310156113e357848901516113df601f8916826112ec565b8355505b6001600288020188555050505b505050505050565b61140181610ca6565b82525050565b600061141282610cc7565b61141c8185610f5d565b935061142c818560208601610ce3565b61143581610a4f565b840191505092915050565b600060e082019050611455600083018a6113f8565b81810360208301526114678189611407565b9050818103604083015261147b8188611407565b905061148a606083018761099b565b611497608083018661099b565b81810360a08301526114a98185611407565b90506114b860c083018461099b565b9897505050505050505056fea264697066735822122018a08cef92aab91847fb2a7c12a3689d45f29fd981f2bb3eafd9b0ce3712dc6164736f6c63430008120033",
  "immutableReferences": {},
  "source": "// SPDX-License-Identifier: UNLICENSED\r\npragma solidity ^0.8.9;\r\n\r\ncontract Appointments {\r\n\r\n    uint256 bookingsCounter;\r\n    bool[][] slotsFilled;\r\n    uint doctorsCount;\r\n    uint slotsCount;\r\n    struct Appointment {\r\n        address sender;\r\n        string patient;\r\n        string doctor;\r\n        uint slotNo;\r\n        uint doctorNo;\r\n        string date;\r\n        uint256 timestamp;\r\n    }\r\n\r\n    event bookAppointment(address sender,string patient, string doctor, uint doctorNo, uint slotNo, string date, uint256 timestamp);\r\n\r\n    Appointment[] appointments;\r\n\r\n    function setDoctorsAndSlots(uint noOfDoctors, uint noOfSlots) public{\r\n        doctorsCount = noOfDoctors;\r\n        slotsCount = noOfSlots;\r\n        slotsFilled = new bool[][](noOfDoctors);\r\n        for (uint i = 0; i < noOfDoctors; i++) {\r\n            slotsFilled[i] = new bool[](noOfSlots);\r\n            for (uint j = 0; j < noOfSlots; j++) {\r\n                slotsFilled[i][j] = false;\r\n            }\r\n        }\r\n    }\r\n\r\n    function addToBlockchain(string memory patient,string memory doctor, uint doctorNo, uint slotNo, string memory date) public {\r\n        require(slotNo<=slotsCount && slotNo > 0,\"Invalid slot number\");\r\n        require(doctorNo<=doctorsCount && doctorNo > 0,\"Invalid doctor number\");\r\n        require(slotsFilled[doctorNo-1][slotNo-1]==false,\"Slot already filled\");\r\n        bookingsCounter+=1;\r\n        slotsFilled[doctorNo-1][slotNo-1]=true;\r\n        appointments.push(Appointment(msg.sender,patient, doctor, slotNo, doctorNo, date, block.timestamp));\r\n\r\n        emit bookAppointment(msg.sender,patient, doctor, doctorNo, slotNo, date, block.timestamp);\r\n    } \r\n\r\n    function getAllAppointments() public view returns (Appointment[] memory) {\r\n        return appointments;\r\n    } \r\n\r\n    function getAppointmentsCount() public view returns (uint256) {\r\n        return bookingsCounter;\r\n    } \r\n\r\n}",
  "sourcePath": "D:\\SASTRA\\Blockchain\\Healthcare dApp\\smart_contracts\\contracts\\Appointments.sol",
  "compiler": {
    "name": "solc",
    "version": "0.8.18+commit.87f61d96.Emscripten.clang"
  },
  "schemaVersion": "3.4.12",
  "updatedAt": "2023-06-13T14:40:42.534Z",
  "networkType": "ethereum",
  "devdoc": {
    "kind": "dev",
    "methods": {},
    "version": 1
  },
  "userdoc": {
    "kind": "user",
    "methods": {},
    "version": 1
  }
}