{
  "contractName": "DrugInventory",
  "abi": [
    {
      "anonymous": false,
      "inputs": [
        {
          "indexed": false,
          "internalType": "string",
          "name": "patientName",
          "type": "string"
        },
        {
          "indexed": false,
          "internalType": "uint256",
          "name": "doctorId",
          "type": "uint256"
        },
        {
          "indexed": false,
          "internalType": "uint256",
          "name": "pharmaId",
          "type": "uint256"
        },
        {
          "indexed": false,
          "internalType": "string[][]",
          "name": "medicines",
          "type": "string[][]"
        },
        {
          "indexed": false,
          "internalType": "uint256",
          "name": "timestamp",
          "type": "uint256"
        }
      ],
      "name": "generateReceipt",
      "type": "event"
    },
    {
      "inputs": [
        {
          "internalType": "string",
          "name": "pname",
          "type": "string"
        },
        {
          "internalType": "uint256",
          "name": "docid",
          "type": "uint256"
        },
        {
          "internalType": "uint256",
          "name": "phid",
          "type": "uint256"
        },
        {
          "internalType": "string[][]",
          "name": "_medicines",
          "type": "string[][]"
        }
      ],
      "name": "addReceipt",
      "outputs": [],
      "stateMutability": "nonpayable",
      "type": "function"
    },
    {
      "inputs": [],
      "name": "getAllReceipts",
      "outputs": [
        {
          "components": [
            {
              "internalType": "string",
              "name": "patientName",
              "type": "string"
            },
            {
              "internalType": "uint256",
              "name": "doctorId",
              "type": "uint256"
            },
            {
              "internalType": "uint256",
              "name": "pharmaId",
              "type": "uint256"
            },
            {
              "internalType": "string[][]",
              "name": "medicines",
              "type": "string[][]"
            },
            {
              "internalType": "uint256",
              "name": "timestamp",
              "type": "uint256"
            }
          ],
          "internalType": "struct DrugInventory.Receipt[]",
          "name": "",
          "type": "tuple[]"
        }
      ],
      "stateMutability": "view",
      "type": "function",
      "constant": true
    },
    {
      "inputs": [],
      "name": "getReceiptsCount",
      "outputs": [
        {
          "internalType": "uint256",
          "name": "",
          "type": "uint256"
        }
      ],
      "stateMutability": "view",
      "type": "function",
      "constant": true
    }
  ],
  "bytecode": "0x608060405234801561001057600080fd5b50611193806100206000396000f3fe608060405234801561001057600080fd5b50600436106100415760003560e01c80636dc37f9414610046578063b926be2014610064578063f878a0c614610082575b600080fd5b61004e61009e565b60405161005b9190610571565b60405180910390f35b61006c6100a7565b60405161007991906108ee565b60405180910390f35b61009c60048036038101906100979190610c4c565b6102d6565b005b60008054905090565b60606001805480602002602001604051908101604052809291908181526020016000905b828210156102cd57838290600052602060002090600502016040518060a00160405290816000820180546100fe90610d1a565b80601f016020809104026020016040519081016040528092919081815260200182805461012a90610d1a565b80156101775780601f1061014c57610100808354040283529160200191610177565b820191906000526020600020905b81548152906001019060200180831161015a57829003601f168201915b50505050508152602001600182015481526020016002820154815260200160038201805480602002602001604051908101604052809291908181526020016000905b828210156102ac57838290600052602060002001805480602002602001604051908101604052809291908181526020016000905b8282101561029957838290600052602060002001805461020c90610d1a565b80601f016020809104026020016040519081016040528092919081815260200182805461023890610d1a565b80156102855780601f1061025a57610100808354040283529160200191610285565b820191906000526020600020905b81548152906001019060200180831161026857829003601f168201915b5050505050815260200190600101906101ed565b50505050815260200190600101906101b9565b505050508152602001600482015481525050815260200190600101906100cb565b50505050905090565b60016040518060a00160405280868152602001858152602001848152602001838152602001428152509080600181540180825580915050600190039060005260206000209060050201600090919091909150600082015181600001908161033d9190610ef7565b506020820151816001015560408201518160020155606082015181600301908051906020019061036e9291906103d9565b50608082015181600401555050600160008082825461038d9190610ff8565b925050819055507f799141c3dec230418fd08447998294fb2681dd258e184b3c67e338f1b317013684848484426040516103cb9594939291906110fc565b60405180910390a150505050565b828054828255906000526020600020908101928215610428579160200282015b82811115610427578251829080519060200190610417929190610439565b50916020019190600101906103f9565b5b5090506104359190610492565b5090565b828054828255906000526020600020908101928215610481579160200282015b828111156104805782518290816104709190610ef7565b5091602001919060010190610459565b5b50905061048e91906104b6565b5090565b5b808211156104b257600081816104a991906104da565b50600101610493565b5090565b5b808211156104d657600081816104cd91906104fb565b506001016104b7565b5090565b50805460008255906000526020600020908101906104f891906104b6565b50565b50805461050790610d1a565b6000825580601f106105195750610538565b601f016020900490600052602060002090810190610537919061053b565b5b50565b5b8082111561055457600081600090555060010161053c565b5090565b6000819050919050565b61056b81610558565b82525050565b60006020820190506105866000830184610562565b92915050565b600081519050919050565b600082825260208201905092915050565b6000819050602082019050919050565b600081519050919050565b600082825260208201905092915050565b60005b838110156105f25780820151818401526020810190506105d7565b60008484015250505050565b6000601f19601f8301169050919050565b600061061a826105b8565b61062481856105c3565b93506106348185602086016105d4565b61063d816105fe565b840191505092915050565b61065181610558565b82525050565b600081519050919050565b600082825260208201905092915050565b6000819050602082019050919050565b600081519050919050565b600082825260208201905092915050565b6000819050602082019050919050565b60006106bb838361060f565b905092915050565b6000602082019050919050565b60006106db82610683565b6106e5818561068e565b9350836020820285016106f78561069f565b8060005b85811015610733578484038952815161071485826106af565b945061071f836106c3565b925060208a019950506001810190506106fb565b50829750879550505050505092915050565b600061075183836106d0565b905092915050565b6000602082019050919050565b600061077182610657565b61077b8185610662565b93508360208202850161078d85610673565b8060005b858110156107c957848403895281516107aa8582610745565b94506107b583610759565b925060208a01995050600181019050610791565b50829750879550505050505092915050565b600060a08301600083015184820360008601526107f8828261060f565b915050602083015161080d6020860182610648565b5060408301516108206040860182610648565b50606083015184820360608601526108388282610766565b915050608083015161084d6080860182610648565b508091505092915050565b600061086483836107db565b905092915050565b6000602082019050919050565b60006108848261058c565b61088e8185610597565b9350836020820285016108a0856105a8565b8060005b858110156108dc57848403895281516108bd8582610858565b94506108c88361086c565b925060208a019950506001810190506108a4565b50829750879550505050505092915050565b600060208201905081810360008301526109088184610879565b905092915050565b6000604051905090565b600080fd5b600080fd5b600080fd5b600080fd5b7f4e487b7100000000000000000000000000000000000000000000000000000000600052604160045260246000fd5b610966826105fe565b810181811067ffffffffffffffff821117156109855761098461092e565b5b80604052505050565b6000610998610910565b90506109a4828261095d565b919050565b600067ffffffffffffffff8211156109c4576109c361092e565b5b6109cd826105fe565b9050602081019050919050565b82818337600083830152505050565b60006109fc6109f7846109a9565b61098e565b905082815260208101848484011115610a1857610a17610929565b5b610a238482856109da565b509392505050565b600082601f830112610a4057610a3f610924565b5b8135610a508482602086016109e9565b91505092915050565b610a6281610558565b8114610a6d57600080fd5b50565b600081359050610a7f81610a59565b92915050565b600067ffffffffffffffff821115610aa057610a9f61092e565b5b602082029050602081019050919050565b600080fd5b600067ffffffffffffffff821115610ad157610ad061092e565b5b602082029050602081019050919050565b6000610af5610af084610ab6565b61098e565b90508083825260208201905060208402830185811115610b1857610b17610ab1565b5b835b81811015610b5f57803567ffffffffffffffff811115610b3d57610b3c610924565b5b808601610b4a8982610a2b565b85526020850194505050602081019050610b1a565b5050509392505050565b600082601f830112610b7e57610b7d610924565b5b8135610b8e848260208601610ae2565b91505092915050565b6000610baa610ba584610a85565b61098e565b90508083825260208201905060208402830185811115610bcd57610bcc610ab1565b5b835b81811015610c1457803567ffffffffffffffff811115610bf257610bf1610924565b5b808601610bff8982610b69565b85526020850194505050602081019050610bcf565b5050509392505050565b600082601f830112610c3357610c32610924565b5b8135610c43848260208601610b97565b91505092915050565b60008060008060808587031215610c6657610c6561091a565b5b600085013567ffffffffffffffff811115610c8457610c8361091f565b5b610c9087828801610a2b565b9450506020610ca187828801610a70565b9350506040610cb287828801610a70565b925050606085013567ffffffffffffffff811115610cd357610cd261091f565b5b610cdf87828801610c1e565b91505092959194509250565b7f4e487b7100000000000000000000000000000000000000000000000000000000600052602260045260246000fd5b60006002820490506001821680610d3257607f821691505b602082108103610d4557610d44610ceb565b5b50919050565b60008190508160005260206000209050919050565b60006020601f8301049050919050565b600082821b905092915050565b600060088302610dad7fffffffffffffffffffffffffffffffffffffffffffffffffffffffffffffffff82610d70565b610db78683610d70565b95508019841693508086168417925050509392505050565b6000819050919050565b6000610df4610def610dea84610558565b610dcf565b610558565b9050919050565b6000819050919050565b610e0e83610dd9565b610e22610e1a82610dfb565b848454610d7d565b825550505050565b600090565b610e37610e2a565b610e42818484610e05565b505050565b5b81811015610e6657610e5b600082610e2f565b600181019050610e48565b5050565b601f821115610eab57610e7c81610d4b565b610e8584610d60565b81016020851015610e94578190505b610ea8610ea085610d60565b830182610e47565b50505b505050565b600082821c905092915050565b6000610ece60001984600802610eb0565b1980831691505092915050565b6000610ee78383610ebd565b9150826002028217905092915050565b610f00826105b8565b67ffffffffffffffff811115610f1957610f1861092e565b5b610f238254610d1a565b610f2e828285610e6a565b600060209050601f831160018114610f615760008415610f4f578287015190505b610f598582610edb565b865550610fc1565b601f198416610f6f86610d4b565b60005b82811015610f9757848901518255600182019150602085019450602081019050610f72565b86831015610fb45784890151610fb0601f891682610ebd565b8355505b6001600288020188555050505b505050505050565b7f4e487b7100000000000000000000000000000000000000000000000000000000600052601160045260246000fd5b600061100382610558565b915061100e83610558565b925082820190508082111561102657611025610fc9565b5b92915050565b600082825260208201905092915050565b6000611048826105b8565b611052818561102c565b93506110628185602086016105d4565b61106b816105fe565b840191505092915050565b600082825260208201905092915050565b600061109282610657565b61109c8185611076565b9350836020820285016110ae85610673565b8060005b858110156110ea57848403895281516110cb8582610745565b94506110d683610759565b925060208a019950506001810190506110b2565b50829750879550505050505092915050565b600060a0820190508181036000830152611116818861103d565b90506111256020830187610562565b6111326040830186610562565b81810360608301526111448185611087565b90506111536080830184610562565b969550505050505056fea2646970667358221220252d143a5cbf2f12c8b68aa255f600125ba889268cd8dcd5b8dc4bca02a6022164736f6c63430008120033",
  "immutableReferences": {},
  "source": "// SPDX-License-Identifier: UNLICENSED\r\npragma solidity ^0.8.9;\r\n\r\ncontract DrugInventory {\r\n    uint256 receiptsGenerated;\r\n    struct Receipt {\r\n        string patientName;\r\n        uint256 doctorId;\r\n        uint256 pharmaId;\r\n        string[][] medicines;\r\n        uint256 timestamp;\r\n    }\r\n    event generateReceipt(\r\n        string patientName,\r\n        uint256 doctorId,\r\n        uint256 pharmaId,\r\n        string[][] medicines,\r\n        uint256 timestamp\r\n    );\r\n    Receipt[] receipts;\r\n\r\n    function addReceipt(\r\n        string memory pname,\r\n        uint256 docid,\r\n        uint256 phid,\r\n        string[][] memory _medicines\r\n    ) public {\r\n        receipts.push(Receipt(pname, docid, phid, _medicines, block.timestamp));\r\n        receiptsGenerated += 1;\r\n        emit generateReceipt(pname, docid, phid, _medicines, block.timestamp);\r\n    }\r\n\r\n    function getAllReceipts() public view returns (Receipt[] memory) {\r\n        return receipts;\r\n    }\r\n\r\n    function getReceiptsCount() public view returns (uint256) {\r\n        return receiptsGenerated;\r\n    }\r\n}\r\n",
  "sourcePath": "C:\\Users\\Mahita\\Desktop\\COLLEGE\\SEM 6\\MINI PROJECT\\Healthcare-dapp\\Healthcare-dApp\\smart_contracts\\contracts\\DrugInventory.sol",
  "compiler": {
    "name": "solc",
    "version": "0.8.18+commit.87f61d96.Emscripten.clang"
  },
  "schemaVersion": "3.4.13",
  "updatedAt": "2023-04-10T11:11:46.366Z",
  "networkType": "ethereum",
  "devdoc": {
    "kind": "dev",
    "methods": {},
    "version": 1
  },
  "userdoc": {
    "kind": "user",
    "methods": {},
    "version": 1
  }
}