{
  "contractName": "DrugInventory",
  "abi": [
    {
      "anonymous": false,
      "inputs": [
        {
          "indexed": false,
          "internalType": "string",
          "name": "patientName",
          "type": "string"
        },
        {
          "indexed": false,
          "internalType": "string",
          "name": "doctorId",
          "type": "string"
        },
        {
          "indexed": false,
          "internalType": "string",
          "name": "pharmaId",
          "type": "string"
        },
        {
          "indexed": false,
          "internalType": "string[][]",
          "name": "medicines",
          "type": "string[][]"
        },
        {
          "indexed": false,
          "internalType": "uint256",
          "name": "timestamp",
          "type": "uint256"
        }
      ],
      "name": "generateReceipt",
      "type": "event"
    },
    {
      "inputs": [
        {
          "internalType": "uint256",
          "name": "",
          "type": "uint256"
        }
      ],
      "name": "receipts",
      "outputs": [
        {
          "internalType": "string",
          "name": "patientName",
          "type": "string"
        },
        {
          "internalType": "string",
          "name": "doctorId",
          "type": "string"
        },
        {
          "internalType": "string",
          "name": "pharmaId",
          "type": "string"
        },
        {
          "internalType": "uint256",
          "name": "timestamp",
          "type": "uint256"
        }
      ],
      "stateMutability": "view",
      "type": "function",
      "constant": true
    },
    {
      "inputs": [
        {
          "internalType": "string",
          "name": "pname",
          "type": "string"
        },
        {
          "internalType": "string",
          "name": "docid",
          "type": "string"
        },
        {
          "internalType": "string",
          "name": "phid",
          "type": "string"
        },
        {
          "internalType": "string[][]",
          "name": "_medicines",
          "type": "string[][]"
        }
      ],
      "name": "addReceipt",
      "outputs": [],
      "stateMutability": "nonpayable",
      "type": "function"
    },
    {
      "inputs": [],
      "name": "getAllReceipts",
      "outputs": [
        {
          "components": [
            {
              "internalType": "string",
              "name": "patientName",
              "type": "string"
            },
            {
              "internalType": "string",
              "name": "doctorId",
              "type": "string"
            },
            {
              "internalType": "string",
              "name": "pharmaId",
              "type": "string"
            },
            {
              "internalType": "string[][]",
              "name": "medicines",
              "type": "string[][]"
            },
            {
              "internalType": "uint256",
              "name": "timestamp",
              "type": "uint256"
            }
          ],
          "internalType": "struct DrugInventory.Receipt[]",
          "name": "",
          "type": "tuple[]"
        }
      ],
      "stateMutability": "view",
      "type": "function",
      "constant": true
    },
    {
      "inputs": [],
      "name": "getReceiptsCount",
      "outputs": [
        {
          "internalType": "uint256",
          "name": "",
          "type": "uint256"
        }
      ],
      "stateMutability": "view",
      "type": "function",
      "constant": true
    }
  ],
  "bytecode": "0x608060405234801561001057600080fd5b506115ac806100206000396000f3fe608060405234801561001057600080fd5b506004361061004c5760003560e01c80630f7ee1ec146100515780631c0a8fe0146100845780636dc37f94146100a0578063b926be20146100be575b600080fd5b61006b600480360381019061006691906108e0565b6100dc565b60405161007b94939291906109ac565b60405180910390f35b61009e60048036038101906100999190610d02565b6102b4565b005b6100a86103cf565b6040516100b59190610dd9565b60405180910390f35b6100c66103d8565b6040516100d3919061111e565b60405180910390f35b600181815481106100ec57600080fd5b906000526020600020906005020160009150905080600001805461010f9061116f565b80601f016020809104026020016040519081016040528092919081815260200182805461013b9061116f565b80156101885780601f1061015d57610100808354040283529160200191610188565b820191906000526020600020905b81548152906001019060200180831161016b57829003601f168201915b50505050509080600101805461019d9061116f565b80601f01602080910402602001604051908101604052809291908181526020018280546101c99061116f565b80156102165780601f106101eb57610100808354040283529160200191610216565b820191906000526020600020905b8154815290600101906020018083116101f957829003601f168201915b50505050509080600201805461022b9061116f565b80601f01602080910402602001604051908101604052809291908181526020018280546102579061116f565b80156102a45780601f10610279576101008083540402835291602001916102a4565b820191906000526020600020905b81548152906001019060200180831161028757829003601f168201915b5050505050908060040154905084565b60016040518060a00160405280868152602001858152602001848152602001838152602001428152509080600181540180825580915050600190039060005260206000209060050201600090919091909150600082015181600001908161031b919061134c565b506020820151816001019081610331919061134c565b506040820151816002019081610347919061134c565b506060820151816003019080519060200190610364929190610717565b506080820151816004015550506001600080828254610383919061144d565b925050819055507f98fdfbc444566c459506309a0daf69b96fbaf2ac0780eb008be3994d79f9870a84848484426040516103c1959493929190611507565b60405180910390a150505050565b60008054905090565b60606001805480602002602001604051908101604052809291908181526020016000905b8282101561070e57838290600052602060002090600502016040518060a001604052908160008201805461042f9061116f565b80601f016020809104026020016040519081016040528092919081815260200182805461045b9061116f565b80156104a85780601f1061047d576101008083540402835291602001916104a8565b820191906000526020600020905b81548152906001019060200180831161048b57829003601f168201915b505050505081526020016001820180546104c19061116f565b80601f01602080910402602001604051908101604052809291908181526020018280546104ed9061116f565b801561053a5780601f1061050f5761010080835404028352916020019161053a565b820191906000526020600020905b81548152906001019060200180831161051d57829003601f168201915b505050505081526020016002820180546105539061116f565b80601f016020809104026020016040519081016040528092919081815260200182805461057f9061116f565b80156105cc5780601f106105a1576101008083540402835291602001916105cc565b820191906000526020600020905b8154815290600101906020018083116105af57829003601f168201915b5050505050815260200160038201805480602002602001604051908101604052809291908181526020016000905b828210156106ed57838290600052602060002001805480602002602001604051908101604052809291908181526020016000905b828210156106da57838290600052602060002001805461064d9061116f565b80601f01602080910402602001604051908101604052809291908181526020018280546106799061116f565b80156106c65780601f1061069b576101008083540402835291602001916106c6565b820191906000526020600020905b8154815290600101906020018083116106a957829003601f168201915b50505050508152602001906001019061062e565b50505050815260200190600101906105fa565b505050508152602001600482015481525050815260200190600101906103fc565b50505050905090565b828054828255906000526020600020908101928215610766579160200282015b82811115610765578251829080519060200190610755929190610777565b5091602001919060010190610737565b5b50905061077391906107d0565b5090565b8280548282559060005260206000209081019282156107bf579160200282015b828111156107be5782518290816107ae919061134c565b5091602001919060010190610797565b5b5090506107cc91906107f4565b5090565b5b808211156107f057600081816107e79190610818565b506001016107d1565b5090565b5b80821115610814576000818161080b9190610839565b506001016107f5565b5090565b508054600082559060005260206000209081019061083691906107f4565b50565b5080546108459061116f565b6000825580601f106108575750610876565b601f0160209004906000526020600020908101906108759190610879565b5b50565b5b8082111561089257600081600090555060010161087a565b5090565b6000604051905090565b600080fd5b600080fd5b6000819050919050565b6108bd816108aa565b81146108c857600080fd5b50565b6000813590506108da816108b4565b92915050565b6000602082840312156108f6576108f56108a0565b5b6000610904848285016108cb565b91505092915050565b600081519050919050565b600082825260208201905092915050565b60005b8381101561094757808201518184015260208101905061092c565b60008484015250505050565b6000601f19601f8301169050919050565b600061096f8261090d565b6109798185610918565b9350610989818560208601610929565b61099281610953565b840191505092915050565b6109a6816108aa565b82525050565b600060808201905081810360008301526109c68187610964565b905081810360208301526109da8186610964565b905081810360408301526109ee8185610964565b90506109fd606083018461099d565b95945050505050565b600080fd5b600080fd5b7f4e487b7100000000000000000000000000000000000000000000000000000000600052604160045260246000fd5b610a4882610953565b810181811067ffffffffffffffff82111715610a6757610a66610a10565b5b80604052505050565b6000610a7a610896565b9050610a868282610a3f565b919050565b600067ffffffffffffffff821115610aa657610aa5610a10565b5b610aaf82610953565b9050602081019050919050565b82818337600083830152505050565b6000610ade610ad984610a8b565b610a70565b905082815260208101848484011115610afa57610af9610a0b565b5b610b05848285610abc565b509392505050565b600082601f830112610b2257610b21610a06565b5b8135610b32848260208601610acb565b91505092915050565b600067ffffffffffffffff821115610b5657610b55610a10565b5b602082029050602081019050919050565b600080fd5b600067ffffffffffffffff821115610b8757610b86610a10565b5b602082029050602081019050919050565b6000610bab610ba684610b6c565b610a70565b90508083825260208201905060208402830185811115610bce57610bcd610b67565b5b835b81811015610c1557803567ffffffffffffffff811115610bf357610bf2610a06565b5b808601610c008982610b0d565b85526020850194505050602081019050610bd0565b5050509392505050565b600082601f830112610c3457610c33610a06565b5b8135610c44848260208601610b98565b91505092915050565b6000610c60610c5b84610b3b565b610a70565b90508083825260208201905060208402830185811115610c8357610c82610b67565b5b835b81811015610cca57803567ffffffffffffffff811115610ca857610ca7610a06565b5b808601610cb58982610c1f565b85526020850194505050602081019050610c85565b5050509392505050565b600082601f830112610ce957610ce8610a06565b5b8135610cf9848260208601610c4d565b91505092915050565b60008060008060808587031215610d1c57610d1b6108a0565b5b600085013567ffffffffffffffff811115610d3a57610d396108a5565b5b610d4687828801610b0d565b945050602085013567ffffffffffffffff811115610d6757610d666108a5565b5b610d7387828801610b0d565b935050604085013567ffffffffffffffff811115610d9457610d936108a5565b5b610da087828801610b0d565b925050606085013567ffffffffffffffff811115610dc157610dc06108a5565b5b610dcd87828801610cd4565b91505092959194509250565b6000602082019050610dee600083018461099d565b92915050565b600081519050919050565b600082825260208201905092915050565b6000819050602082019050919050565b600082825260208201905092915050565b6000610e3c8261090d565b610e468185610e20565b9350610e56818560208601610929565b610e5f81610953565b840191505092915050565b600081519050919050565b600082825260208201905092915050565b6000819050602082019050919050565b600081519050919050565b600082825260208201905092915050565b6000819050602082019050919050565b6000610ece8383610e31565b905092915050565b6000602082019050919050565b6000610eee82610e96565b610ef88185610ea1565b935083602082028501610f0a85610eb2565b8060005b85811015610f465784840389528151610f278582610ec2565b9450610f3283610ed6565b925060208a01995050600181019050610f0e565b50829750879550505050505092915050565b6000610f648383610ee3565b905092915050565b6000602082019050919050565b6000610f8482610e6a565b610f8e8185610e75565b935083602082028501610fa085610e86565b8060005b85811015610fdc5784840389528151610fbd8582610f58565b9450610fc883610f6c565b925060208a01995050600181019050610fa4565b50829750879550505050505092915050565b610ff7816108aa565b82525050565b600060a083016000830151848203600086015261101a8282610e31565b915050602083015184820360208601526110348282610e31565b9150506040830151848203604086015261104e8282610e31565b915050606083015184820360608601526110688282610f79565b915050608083015161107d6080860182610fee565b508091505092915050565b60006110948383610ffd565b905092915050565b6000602082019050919050565b60006110b482610df4565b6110be8185610dff565b9350836020820285016110d085610e10565b8060005b8581101561110c57848403895281516110ed8582611088565b94506110f88361109c565b925060208a019950506001810190506110d4565b50829750879550505050505092915050565b6000602082019050818103600083015261113881846110a9565b905092915050565b7f4e487b7100000000000000000000000000000000000000000000000000000000600052602260045260246000fd5b6000600282049050600182168061118757607f821691505b60208210810361119a57611199611140565b5b50919050565b60008190508160005260206000209050919050565b60006020601f8301049050919050565b600082821b905092915050565b6000600883026112027fffffffffffffffffffffffffffffffffffffffffffffffffffffffffffffffff826111c5565b61120c86836111c5565b95508019841693508086168417925050509392505050565b6000819050919050565b600061124961124461123f846108aa565b611224565b6108aa565b9050919050565b6000819050919050565b6112638361122e565b61127761126f82611250565b8484546111d2565b825550505050565b600090565b61128c61127f565b61129781848461125a565b505050565b5b818110156112bb576112b0600082611284565b60018101905061129d565b5050565b601f821115611300576112d1816111a0565b6112da846111b5565b810160208510156112e9578190505b6112fd6112f5856111b5565b83018261129c565b50505b505050565b600082821c905092915050565b600061132360001984600802611305565b1980831691505092915050565b600061133c8383611312565b9150826002028217905092915050565b6113558261090d565b67ffffffffffffffff81111561136e5761136d610a10565b5b611378825461116f565b6113838282856112bf565b600060209050601f8311600181146113b657600084156113a4578287015190505b6113ae8582611330565b865550611416565b601f1984166113c4866111a0565b60005b828110156113ec578489015182556001820191506020850194506020810190506113c7565b868310156114095784890151611405601f891682611312565b8355505b6001600288020188555050505b505050505050565b7f4e487b7100000000000000000000000000000000000000000000000000000000600052601160045260246000fd5b6000611458826108aa565b9150611463836108aa565b925082820190508082111561147b5761147a61141e565b5b92915050565b600082825260208201905092915050565b600061149d82610e6a565b6114a78185611481565b9350836020820285016114b985610e86565b8060005b858110156114f557848403895281516114d68582610f58565b94506114e183610f6c565b925060208a019950506001810190506114bd565b50829750879550505050505092915050565b600060a08201905081810360008301526115218188610964565b905081810360208301526115358187610964565b905081810360408301526115498186610964565b9050818103606083015261155d8185611492565b905061156c608083018461099d565b969550505050505056fea264697066735822122044c1f5e5266c9093d0efd5423ff8cc5963455b26227e121df6e6a483bf0eefd064736f6c63430008120033",
  "immutableReferences": {},
  "source": "// SPDX-License-Identifier: UNLICENSED\r\npragma solidity ^0.8.9;\r\n\r\n/*contract DrugSales{\r\n    uint256 salesCounter;\r\n\r\n    struct Receipt{\r\n        string patient;\r\n        string doctor;\r\n        string pharmacist;\r\n        string[][] medicines;\r\n        uint256 timestamp;\r\n    }\r\n\r\n    Receipt[] receipts;\r\n    event generateReceipt(string patient, string doctor, string pharmacist, string[][] medicines, uint256 timestamp);\r\n\r\n    function addToBlockchain(string memory patient,string memory doctor, string memory pharmacist, string[][] memory medicines) public {\r\n        salesCounter+=1;\r\n        receipts.push(Receipt(patient, doctor, pharmacist, medicines, block.timestamp));\r\n\r\n        emit generateReceipt(patient, doctor, pharmacist, medicines, block.timestamp);\r\n    }\r\n\r\n    function getAllReceipts() public view returns (Receipt[] memory) {\r\n        return receipts;\r\n    } \r\n\r\n    function getReceiptsCount() public view returns (uint256){\r\n        return salesCounter;\r\n    }\r\n}*/\r\ncontract DrugInventory {\r\n    uint256 receiptsGenerated;\r\n    struct Receipt {\r\n        string patientName;\r\n        string doctorId;\r\n        string pharmaId;\r\n        string[][] medicines;\r\n        uint256 timestamp;\r\n    }\r\n    event generateReceipt(\r\n        string patientName,\r\n        string doctorId,\r\n        string pharmaId,\r\n        string[][] medicines,\r\n        uint256 timestamp\r\n    );\r\n    Receipt[] public receipts;\r\n\r\n    function addReceipt(\r\n        string memory pname,\r\n        string memory docid,\r\n        string memory phid,\r\n        string[][] memory _medicines\r\n    ) public {\r\n        receipts.push(Receipt(pname, docid, phid, _medicines, block.timestamp));\r\n        receiptsGenerated += 1;\r\n        emit generateReceipt(pname, docid, phid, _medicines, block.timestamp);\r\n    }\r\n\r\n    function getAllReceipts() public view returns (Receipt[] memory) {\r\n        return receipts;\r\n    }\r\n\r\n    function getReceiptsCount() public view returns (uint256) {\r\n        return receiptsGenerated;\r\n    }\r\n}\r\n",
  "sourcePath": "D:\\SASTRA\\Blockchain\\Healthcare dApp\\smart_contracts\\contracts\\DrugInventory.sol",
  "compiler": {
    "name": "solc",
    "version": "0.8.18+commit.87f61d96.Emscripten.clang"
  },
  "schemaVersion": "3.4.12",
  "updatedAt": "2023-03-17T17:22:30.472Z",
  "networkType": "ethereum",
  "devdoc": {
    "kind": "dev",
    "methods": {},
    "version": 1
  },
  "userdoc": {
    "kind": "user",
    "methods": {},
    "version": 1
  }
}