{
  "contractName": "DrugInventory",
  "abi": [
    {
      "anonymous": false,
      "inputs": [
        {
          "indexed": false,
          "internalType": "address",
          "name": "sender",
          "type": "address"
        },
        {
          "indexed": false,
          "internalType": "uint256",
          "name": "rfid",
          "type": "uint256"
        },
        {
          "indexed": false,
          "internalType": "uint256",
          "name": "lotNo",
          "type": "uint256"
        },
        {
          "indexed": false,
          "internalType": "string",
          "name": "medName",
          "type": "string"
        },
        {
          "indexed": false,
          "internalType": "uint256",
          "name": "qty",
          "type": "uint256"
        },
        {
          "indexed": false,
          "internalType": "uint256",
          "name": "ppu",
          "type": "uint256"
        },
        {
          "indexed": false,
          "internalType": "string",
          "name": "manufacturer",
          "type": "string"
        },
        {
          "indexed": false,
          "internalType": "string",
          "name": "expiryDate",
          "type": "string"
        },
        {
          "indexed": false,
          "internalType": "uint256",
          "name": "blockNo",
          "type": "uint256"
        },
        {
          "indexed": false,
          "internalType": "uint256",
          "name": "timestamp",
          "type": "uint256"
        }
      ],
      "name": "addMedicine",
      "type": "event"
    },
    {
      "anonymous": false,
      "inputs": [
        {
          "indexed": false,
          "internalType": "string",
          "name": "patientName",
          "type": "string"
        },
        {
          "indexed": false,
          "internalType": "uint256",
          "name": "doctorId",
          "type": "uint256"
        },
        {
          "indexed": false,
          "internalType": "uint256",
          "name": "pharmaId",
          "type": "uint256"
        },
        {
          "indexed": false,
          "internalType": "string[][]",
          "name": "medicines",
          "type": "string[][]"
        },
        {
          "indexed": false,
          "internalType": "string",
          "name": "date",
          "type": "string"
        },
        {
          "indexed": false,
          "internalType": "uint256",
          "name": "timestamp",
          "type": "uint256"
        }
      ],
      "name": "generateReceipt",
      "type": "event"
    },
    {
      "inputs": [
        {
          "internalType": "string",
          "name": "pname",
          "type": "string"
        },
        {
          "internalType": "uint256",
          "name": "docid",
          "type": "uint256"
        },
        {
          "internalType": "uint256",
          "name": "phid",
          "type": "uint256"
        },
        {
          "internalType": "string[][]",
          "name": "_medicines",
          "type": "string[][]"
        },
        {
          "internalType": "string",
          "name": "date",
          "type": "string"
        }
      ],
      "name": "addReceipt",
      "outputs": [],
      "stateMutability": "nonpayable",
      "type": "function"
    },
    {
      "inputs": [
        {
          "internalType": "string",
          "name": "s",
          "type": "string"
        }
      ],
      "name": "stringToUint",
      "outputs": [
        {
          "internalType": "uint256",
          "name": "",
          "type": "uint256"
        }
      ],
      "stateMutability": "pure",
      "type": "function",
      "constant": true
    },
    {
      "inputs": [
        {
          "internalType": "uint256",
          "name": "rfid",
          "type": "uint256"
        },
        {
          "internalType": "uint256",
          "name": "lotNo",
          "type": "uint256"
        },
        {
          "internalType": "string",
          "name": "medName",
          "type": "string"
        },
        {
          "internalType": "uint256",
          "name": "qty",
          "type": "uint256"
        },
        {
          "internalType": "uint256",
          "name": "ppu",
          "type": "uint256"
        },
        {
          "internalType": "string",
          "name": "manufacturer",
          "type": "string"
        },
        {
          "internalType": "string",
          "name": "expiryDate",
          "type": "string"
        }
      ],
      "name": "pushMedicine",
      "outputs": [],
      "stateMutability": "nonpayable",
      "type": "function"
    },
    {
      "inputs": [],
      "name": "getAllMedicines",
      "outputs": [
        {
          "components": [
            {
              "internalType": "address",
              "name": "sender",
              "type": "address"
            },
            {
              "internalType": "uint256",
              "name": "rfid",
              "type": "uint256"
            },
            {
              "internalType": "uint256",
              "name": "lotNo",
              "type": "uint256"
            },
            {
              "internalType": "string",
              "name": "medName",
              "type": "string"
            },
            {
              "internalType": "uint256",
              "name": "qty",
              "type": "uint256"
            },
            {
              "internalType": "uint256",
              "name": "ppu",
              "type": "uint256"
            },
            {
              "internalType": "string",
              "name": "manufacturer",
              "type": "string"
            },
            {
              "internalType": "string",
              "name": "expiryDate",
              "type": "string"
            },
            {
              "internalType": "uint256",
              "name": "blockNo",
              "type": "uint256"
            },
            {
              "internalType": "uint256",
              "name": "timestamp",
              "type": "uint256"
            }
          ],
          "internalType": "struct DrugInventory.Medicine[]",
          "name": "",
          "type": "tuple[]"
        }
      ],
      "stateMutability": "view",
      "type": "function",
      "constant": true
    },
    {
      "inputs": [],
      "name": "getAllReceipts",
      "outputs": [
        {
          "components": [
            {
              "internalType": "string",
              "name": "patientName",
              "type": "string"
            },
            {
              "internalType": "uint256",
              "name": "doctorId",
              "type": "uint256"
            },
            {
              "internalType": "uint256",
              "name": "pharmaId",
              "type": "uint256"
            },
            {
              "internalType": "string[][]",
              "name": "medicines",
              "type": "string[][]"
            },
            {
              "internalType": "string",
              "name": "date",
              "type": "string"
            },
            {
              "internalType": "uint256",
              "name": "timestamp",
              "type": "uint256"
            }
          ],
          "internalType": "struct DrugInventory.Receipt[]",
          "name": "",
          "type": "tuple[]"
        }
      ],
      "stateMutability": "view",
      "type": "function",
      "constant": true
    },
    {
      "inputs": [],
      "name": "getReceiptsCount",
      "outputs": [
        {
          "internalType": "uint256",
          "name": "",
          "type": "uint256"
        }
      ],
      "stateMutability": "view",
      "type": "function",
      "constant": true
    }
  ],
  "bytecode": "0x608060405234801561001057600080fd5b50611f81806100206000396000f3fe608060405234801561001057600080fd5b50600436106100625760003560e01c80631bd951551461006757806328fa6f901461009757806351a781b1146100b357806368f2b1d2146100cf5780636dc37f94146100ed578063b926be201461010b575b600080fd5b610081600480360381019061007c9190610e70565b610129565b60405161008e9190610ed2565b60405180910390f35b6100b160048036038101906100ac91906110e0565b6101c1565b005b6100cd60048036038101906100c891906111af565b610483565b005b6100d7610625565b6040516100e4919061151e565b60405180910390f35b6100f56108cd565b6040516101029190610ed2565b60405180910390f35b6101136108d6565b604051610120919061181d565b60405180910390f35b6000808290506000805b82518110156101b65760008382815181106101515761015061183f565b5b602001015160f81c60f81b60f81c60ff16905060308110158015610176575060398111155b156101a257603081610188919061189d565b600a8461019591906118d1565b61019f9190611913565b92505b5080806101ae90611947565b915050610133565b508092505050919050565b6000805b6002805490508110156103185760005b84518110156103045761021c8582815181106101f4576101f361183f565b5b602002602001015160008151811061020f5761020e61183f565b5b6020026020010151610129565b600283815481106102305761022f61183f565b5b90600052602060002090600a020160010154036102f15761028585828151811061025d5761025c61183f565b5b60200260200101516001815181106102785761027761183f565b5b6020026020010151610129565b600283815481106102995761029861183f565b5b90600052602060002090600a02016004015410156102ec576040517f08c379a00000000000000000000000000000000000000000000000000000000081526004016102e3906119ec565b60405180910390fd5b600192505b80806102fc90611947565b9150506101d5565b50808061031090611947565b9150506101c5565b506001151581151514610360576040517f08c379a000000000000000000000000000000000000000000000000000000000815260040161035790611a58565b60405180910390fd5b60016040518060c0016040528088815260200187815260200186815260200185815260200184815260200142815250908060018154018082558091505060019003906000526020600020906006020160009091909190915060008201518160000190816103cd9190611c84565b50602082015181600101556040820151816002015560608201518160030190805190602001906103fe929190610b97565b5060808201518160040190816104149190611c84565b5060a08201518160050155505060016000808282546104339190611913565b925050819055507ff390109c90a80e3cb63ec6e7576b226e46fc7d50e005632e2fd7041b65bd5f9386868686864260405161047396959493929190611e15565b60405180910390a1505050505050565b60026040518061014001604052803373ffffffffffffffffffffffffffffffffffffffff1681526020018981526020018881526020018781526020018681526020018581526020018481526020018381526020014381526020014281525090806001815401808255809150506001900390600052602060002090600a020160009091909190915060008201518160000160006101000a81548173ffffffffffffffffffffffffffffffffffffffff021916908373ffffffffffffffffffffffffffffffffffffffff1602179055506020820151816001015560408201518160020155606082015181600301908161057a9190611c84565b506080820151816004015560a0820151816005015560c08201518160060190816105a49190611c84565b5060e08201518160070190816105ba9190611c84565b506101008201518160080155610120820151816009015550507f45714eee0a4b3242b80ff06a26e174d9d83377b3bc4efdc32fd87953b0ab9b38338888888888888843426040516106149a99989796959493929190611e9a565b60405180910390a150505050505050565b60606002805480602002602001604051908101604052809291908181526020016000905b828210156108c457838290600052602060002090600a0201604051806101400160405290816000820160009054906101000a900473ffffffffffffffffffffffffffffffffffffffff1673ffffffffffffffffffffffffffffffffffffffff1673ffffffffffffffffffffffffffffffffffffffff16815260200160018201548152602001600282015481526020016003820180546106e790611aa7565b80601f016020809104026020016040519081016040528092919081815260200182805461071390611aa7565b80156107605780601f1061073557610100808354040283529160200191610760565b820191906000526020600020905b81548152906001019060200180831161074357829003601f168201915b50505050508152602001600482015481526020016005820154815260200160068201805461078d90611aa7565b80601f01602080910402602001604051908101604052809291908181526020018280546107b990611aa7565b80156108065780601f106107db57610100808354040283529160200191610806565b820191906000526020600020905b8154815290600101906020018083116107e957829003601f168201915b5050505050815260200160078201805461081f90611aa7565b80601f016020809104026020016040519081016040528092919081815260200182805461084b90611aa7565b80156108985780601f1061086d57610100808354040283529160200191610898565b820191906000526020600020905b81548152906001019060200180831161087b57829003601f168201915b505050505081526020016008820154815260200160098201548152505081526020019060010190610649565b50505050905090565b60008054905090565b60606001805480602002602001604051908101604052809291908181526020016000905b82821015610b8e57838290600052602060002090600602016040518060c001604052908160008201805461092d90611aa7565b80601f016020809104026020016040519081016040528092919081815260200182805461095990611aa7565b80156109a65780601f1061097b576101008083540402835291602001916109a6565b820191906000526020600020905b81548152906001019060200180831161098957829003601f168201915b50505050508152602001600182015481526020016002820154815260200160038201805480602002602001604051908101604052809291908181526020016000905b82821015610adb57838290600052602060002001805480602002602001604051908101604052809291908181526020016000905b82821015610ac8578382906000526020600020018054610a3b90611aa7565b80601f0160208091040260200160405190810160405280929190818152602001828054610a6790611aa7565b8015610ab45780601f10610a8957610100808354040283529160200191610ab4565b820191906000526020600020905b815481529060010190602001808311610a9757829003601f168201915b505050505081526020019060010190610a1c565b50505050815260200190600101906109e8565b505050508152602001600482018054610af390611aa7565b80601f0160208091040260200160405190810160405280929190818152602001828054610b1f90611aa7565b8015610b6c5780601f10610b4157610100808354040283529160200191610b6c565b820191906000526020600020905b815481529060010190602001808311610b4f57829003601f168201915b50505050508152602001600582015481525050815260200190600101906108fa565b50505050905090565b828054828255906000526020600020908101928215610be6579160200282015b82811115610be5578251829080519060200190610bd5929190610bf7565b5091602001919060010190610bb7565b5b509050610bf39190610c50565b5090565b828054828255906000526020600020908101928215610c3f579160200282015b82811115610c3e578251829081610c2e9190611c84565b5091602001919060010190610c17565b5b509050610c4c9190610c74565b5090565b5b80821115610c705760008181610c679190610c98565b50600101610c51565b5090565b5b80821115610c945760008181610c8b9190610cb9565b50600101610c75565b5090565b5080546000825590600052602060002090810190610cb69190610c74565b50565b508054610cc590611aa7565b6000825580601f10610cd75750610cf6565b601f016020900490600052602060002090810190610cf59190610cf9565b5b50565b5b80821115610d12576000816000905550600101610cfa565b5090565b6000604051905090565b600080fd5b600080fd5b600080fd5b600080fd5b6000601f19601f8301169050919050565b7f4e487b7100000000000000000000000000000000000000000000000000000000600052604160045260246000fd5b610d7d82610d34565b810181811067ffffffffffffffff82111715610d9c57610d9b610d45565b5b80604052505050565b6000610daf610d16565b9050610dbb8282610d74565b919050565b600067ffffffffffffffff821115610ddb57610dda610d45565b5b610de482610d34565b9050602081019050919050565b82818337600083830152505050565b6000610e13610e0e84610dc0565b610da5565b905082815260208101848484011115610e2f57610e2e610d2f565b5b610e3a848285610df1565b509392505050565b600082601f830112610e5757610e56610d2a565b5b8135610e67848260208601610e00565b91505092915050565b600060208284031215610e8657610e85610d20565b5b600082013567ffffffffffffffff811115610ea457610ea3610d25565b5b610eb084828501610e42565b91505092915050565b6000819050919050565b610ecc81610eb9565b82525050565b6000602082019050610ee76000830184610ec3565b92915050565b610ef681610eb9565b8114610f0157600080fd5b50565b600081359050610f1381610eed565b92915050565b600067ffffffffffffffff821115610f3457610f33610d45565b5b602082029050602081019050919050565b600080fd5b600067ffffffffffffffff821115610f6557610f64610d45565b5b602082029050602081019050919050565b6000610f89610f8484610f4a565b610da5565b90508083825260208201905060208402830185811115610fac57610fab610f45565b5b835b81811015610ff357803567ffffffffffffffff811115610fd157610fd0610d2a565b5b808601610fde8982610e42565b85526020850194505050602081019050610fae565b5050509392505050565b600082601f83011261101257611011610d2a565b5b8135611022848260208601610f76565b91505092915050565b600061103e61103984610f19565b610da5565b9050808382526020820190506020840283018581111561106157611060610f45565b5b835b818110156110a857803567ffffffffffffffff81111561108657611085610d2a565b5b8086016110938982610ffd565b85526020850194505050602081019050611063565b5050509392505050565b600082601f8301126110c7576110c6610d2a565b5b81356110d784826020860161102b565b91505092915050565b600080600080600060a086880312156110fc576110fb610d20565b5b600086013567ffffffffffffffff81111561111a57611119610d25565b5b61112688828901610e42565b955050602061113788828901610f04565b945050604061114888828901610f04565b935050606086013567ffffffffffffffff81111561116957611168610d25565b5b611175888289016110b2565b925050608086013567ffffffffffffffff81111561119657611195610d25565b5b6111a288828901610e42565b9150509295509295909350565b600080600080600080600060e0888a0312156111ce576111cd610d20565b5b60006111dc8a828b01610f04565b97505060206111ed8a828b01610f04565b965050604088013567ffffffffffffffff81111561120e5761120d610d25565b5b61121a8a828b01610e42565b955050606061122b8a828b01610f04565b945050608061123c8a828b01610f04565b93505060a088013567ffffffffffffffff81111561125d5761125c610d25565b5b6112698a828b01610e42565b92505060c088013567ffffffffffffffff81111561128a57611289610d25565b5b6112968a828b01610e42565b91505092959891949750929550565b600081519050919050565b600082825260208201905092915050565b6000819050602082019050919050565b600073ffffffffffffffffffffffffffffffffffffffff82169050919050565b60006112fc826112d1565b9050919050565b61130c816112f1565b82525050565b61131b81610eb9565b82525050565b600081519050919050565b600082825260208201905092915050565b60005b8381101561135b578082015181840152602081019050611340565b60008484015250505050565b600061137282611321565b61137c818561132c565b935061138c81856020860161133d565b61139581610d34565b840191505092915050565b6000610140830160008301516113b96000860182611303565b5060208301516113cc6020860182611312565b5060408301516113df6040860182611312565b50606083015184820360608601526113f78282611367565b915050608083015161140c6080860182611312565b5060a083015161141f60a0860182611312565b5060c083015184820360c08601526114378282611367565b91505060e083015184820360e08601526114518282611367565b915050610100830151611468610100860182611312565b5061012083015161147d610120860182611312565b508091505092915050565b600061149483836113a0565b905092915050565b6000602082019050919050565b60006114b4826112a5565b6114be81856112b0565b9350836020820285016114d0856112c1565b8060005b8581101561150c57848403895281516114ed8582611488565b94506114f88361149c565b925060208a019950506001810190506114d4565b50829750879550505050505092915050565b6000602082019050818103600083015261153881846114a9565b905092915050565b600081519050919050565b600082825260208201905092915050565b6000819050602082019050919050565b600081519050919050565b600082825260208201905092915050565b6000819050602082019050919050565b600081519050919050565b600082825260208201905092915050565b6000819050602082019050919050565b60006115d08383611367565b905092915050565b6000602082019050919050565b60006115f082611598565b6115fa81856115a3565b93508360208202850161160c856115b4565b8060005b85811015611648578484038952815161162985826115c4565b9450611634836115d8565b925060208a01995050600181019050611610565b50829750879550505050505092915050565b600061166683836115e5565b905092915050565b6000602082019050919050565b60006116868261156c565b6116908185611577565b9350836020820285016116a285611588565b8060005b858110156116de57848403895281516116bf858261165a565b94506116ca8361166e565b925060208a019950506001810190506116a6565b50829750879550505050505092915050565b600060c083016000830151848203600086015261170d8282611367565b91505060208301516117226020860182611312565b5060408301516117356040860182611312565b506060830151848203606086015261174d828261167b565b915050608083015184820360808601526117678282611367565b91505060a083015161177c60a0860182611312565b508091505092915050565b600061179383836116f0565b905092915050565b6000602082019050919050565b60006117b382611540565b6117bd818561154b565b9350836020820285016117cf8561155c565b8060005b8581101561180b57848403895281516117ec8582611787565b94506117f78361179b565b925060208a019950506001810190506117d3565b50829750879550505050505092915050565b6000602082019050818103600083015261183781846117a8565b905092915050565b7f4e487b7100000000000000000000000000000000000000000000000000000000600052603260045260246000fd5b7f4e487b7100000000000000000000000000000000000000000000000000000000600052601160045260246000fd5b60006118a882610eb9565b91506118b383610eb9565b92508282039050818111156118cb576118ca61186e565b5b92915050565b60006118dc82610eb9565b91506118e783610eb9565b92508282026118f581610eb9565b9150828204841483151761190c5761190b61186e565b5b5092915050565b600061191e82610eb9565b915061192983610eb9565b92508282019050808211156119415761194061186e565b5b92915050565b600061195282610eb9565b91507fffffffffffffffffffffffffffffffffffffffffffffffffffffffffffffffff82036119845761198361186e565b5b600182019050919050565b600082825260208201905092915050565b7f496e73756666696369656e74207175616e7469747920617661696c61626c6500600082015250565b60006119d6601f8361198f565b91506119e1826119a0565b602082019050919050565b60006020820190508181036000830152611a05816119c9565b9050919050565b7f4d65646963696e65206e6f7420666f756e640000000000000000000000000000600082015250565b6000611a4260128361198f565b9150611a4d82611a0c565b602082019050919050565b60006020820190508181036000830152611a7181611a35565b9050919050565b7f4e487b7100000000000000000000000000000000000000000000000000000000600052602260045260246000fd5b60006002820490506001821680611abf57607f821691505b602082108103611ad257611ad1611a78565b5b50919050565b60008190508160005260206000209050919050565b60006020601f8301049050919050565b600082821b905092915050565b600060088302611b3a7fffffffffffffffffffffffffffffffffffffffffffffffffffffffffffffffff82611afd565b611b448683611afd565b95508019841693508086168417925050509392505050565b6000819050919050565b6000611b81611b7c611b7784610eb9565b611b5c565b610eb9565b9050919050565b6000819050919050565b611b9b83611b66565b611baf611ba782611b88565b848454611b0a565b825550505050565b600090565b611bc4611bb7565b611bcf818484611b92565b505050565b5b81811015611bf357611be8600082611bbc565b600181019050611bd5565b5050565b601f821115611c3857611c0981611ad8565b611c1284611aed565b81016020851015611c21578190505b611c35611c2d85611aed565b830182611bd4565b50505b505050565b600082821c905092915050565b6000611c5b60001984600802611c3d565b1980831691505092915050565b6000611c748383611c4a565b9150826002028217905092915050565b611c8d82611321565b67ffffffffffffffff811115611ca657611ca5610d45565b5b611cb08254611aa7565b611cbb828285611bf7565b600060209050601f831160018114611cee5760008415611cdc578287015190505b611ce68582611c68565b865550611d4e565b601f198416611cfc86611ad8565b60005b82811015611d2457848901518255600182019150602085019450602081019050611cff565b86831015611d415784890151611d3d601f891682611c4a565b8355505b6001600288020188555050505b505050505050565b6000611d6182611321565b611d6b818561198f565b9350611d7b81856020860161133d565b611d8481610d34565b840191505092915050565b600082825260208201905092915050565b6000611dab8261156c565b611db58185611d8f565b935083602082028501611dc785611588565b8060005b85811015611e035784840389528151611de4858261165a565b9450611def8361166e565b925060208a01995050600181019050611dcb565b50829750879550505050505092915050565b600060c0820190508181036000830152611e2f8189611d56565b9050611e3e6020830188610ec3565b611e4b6040830187610ec3565b8181036060830152611e5d8186611da0565b90508181036080830152611e718185611d56565b9050611e8060a0830184610ec3565b979650505050505050565b611e94816112f1565b82525050565b600061014082019050611eb0600083018d611e8b565b611ebd602083018c610ec3565b611eca604083018b610ec3565b8181036060830152611edc818a611d56565b9050611eeb6080830189610ec3565b611ef860a0830188610ec3565b81810360c0830152611f0a8187611d56565b905081810360e0830152611f1e8186611d56565b9050611f2e610100830185610ec3565b611f3c610120830184610ec3565b9b9a505050505050505050505056fea2646970667358221220bd569c144dcc548c684a84cfb549b03e0100953f39762d84eaac54b8499083f364736f6c63430008120033",
  "immutableReferences": {},
  "source": "// SPDX-License-Identifier: UNLICENSED\r\npragma solidity ^0.8.9;\r\n\r\ncontract DrugInventory {\r\n    uint256 receiptsGenerated;\r\n    struct Receipt {\r\n        string patientName;\r\n        uint256 doctorId;\r\n        uint256 pharmaId;\r\n        string[][] medicines;\r\n        string date;\r\n        uint256 timestamp;\r\n    }\r\n    \r\n    event generateReceipt(\r\n        string patientName,\r\n        uint256 doctorId,\r\n        uint256 pharmaId,\r\n        string[][] medicines,\r\n        string date,\r\n        uint256 timestamp\r\n    );\r\n    Receipt[] receipts;\r\n\r\n    struct Medicine {\r\n        address sender;\r\n        uint256 rfid;\r\n        uint lotNo;\r\n        string medName;\r\n        uint qty;\r\n        uint ppu;\r\n        string manufacturer;\r\n        string expiryDate;\r\n        uint256 blockNo;\r\n        uint256 timestamp;\r\n    }\r\n\r\n    event addMedicine(\r\n        address sender,\r\n        uint256 rfid,\r\n        uint lotNo,\r\n        string medName,\r\n        uint qty,\r\n        uint ppu,\r\n        string manufacturer,\r\n        string expiryDate,\r\n        uint256 blockNo,\r\n        uint256 timestamp\r\n    );\r\n\r\n    Medicine[] medicines;\r\n\r\n    function addReceipt(\r\n        string memory pname,\r\n        uint256 docid,\r\n        uint256 phid,\r\n        string[][] memory _medicines,\r\n        string memory date\r\n    ) public {\r\n        bool found = false;\r\n        for (uint i = 0; i < medicines.length; i++) {\r\n            for(uint j=0; j<_medicines.length; j++) {\r\n                if(medicines[i].rfid == stringToUint(_medicines[j][0])){\r\n                    require(medicines[i].qty >= stringToUint(_medicines[j][1]),\"Insufficient quantity available\");\r\n                    found = true;\r\n                }\r\n            }\r\n        }\r\n        require(found==true,\"Medicine not found\");\r\n        receipts.push(Receipt(pname, docid, phid, _medicines, date, block.timestamp));\r\n        receiptsGenerated += 1;\r\n        emit generateReceipt(pname, docid, phid, _medicines, date, block.timestamp);\r\n    }\r\n\r\n    function stringToUint(string memory s) public pure returns (uint) {\r\n        bytes memory b = bytes(s);\r\n        uint result = 0;\r\n        for (uint256 i = 0; i < b.length; i++) {\r\n            uint256 c = uint256(uint8(b[i]));\r\n            if (c >= 48 && c <= 57) {\r\n                result = result * 10 + (c - 48);\r\n            }\r\n        }\r\n        return result;\r\n    }\r\n\r\n    function pushMedicine(uint256 rfid,uint lotNo,string memory medName,uint qty, uint ppu,string memory manufacturer,string memory expiryDate) public{\r\n        medicines.push(Medicine(msg.sender,rfid,lotNo,medName,qty,ppu,manufacturer,expiryDate,block.number,block.timestamp));\r\n        emit addMedicine(msg.sender,rfid, lotNo, medName, qty, ppu, manufacturer, expiryDate, block.number, block.timestamp);\r\n    }\r\n\r\n    function getAllMedicines() public view returns (Medicine[] memory) {\r\n        return medicines;\r\n    }\r\n\r\n    function getAllReceipts() public view returns (Receipt[] memory) {\r\n        return receipts;\r\n    }\r\n\r\n    function getReceiptsCount() public view returns (uint256) {\r\n        return receiptsGenerated;\r\n    }\r\n}\r\n",
  "sourcePath": "D:\\SASTRA\\Blockchain\\Healthcare dApp\\smart_contracts\\contracts\\DrugInventory.sol",
  "compiler": {
    "name": "solc",
    "version": "0.8.18+commit.87f61d96.Emscripten.clang"
  },
  "schemaVersion": "3.4.12",
  "updatedAt": "2023-05-01T03:53:46.076Z",
  "networkType": "ethereum",
  "devdoc": {
    "kind": "dev",
    "methods": {},
    "version": 1
  },
  "userdoc": {
    "kind": "user",
    "methods": {},
    "version": 1
  }
}