{
  "contractName": "DrugInventory",
  "abi": [
    {
      "anonymous": false,
      "inputs": [
        {
          "indexed": false,
          "internalType": "string",
          "name": "patientName",
          "type": "string"
        },
        {
          "indexed": false,
          "internalType": "uint256",
          "name": "doctorId",
          "type": "uint256"
        },
        {
          "indexed": false,
          "internalType": "uint256",
          "name": "pharmaId",
          "type": "uint256"
        },
        {
          "indexed": false,
          "internalType": "string[][]",
          "name": "medicines",
          "type": "string[][]"
        },
        {
          "indexed": false,
          "internalType": "string",
          "name": "date",
          "type": "string"
        },
        {
          "indexed": false,
          "internalType": "uint256",
          "name": "timestamp",
          "type": "uint256"
        }
      ],
      "name": "generateReceipt",
      "type": "event"
    },
    {
      "inputs": [
        {
          "internalType": "string",
          "name": "pname",
          "type": "string"
        },
        {
          "internalType": "uint256",
          "name": "docid",
          "type": "uint256"
        },
        {
          "internalType": "uint256",
          "name": "phid",
          "type": "uint256"
        },
        {
          "internalType": "string[][]",
          "name": "_medicines",
          "type": "string[][]"
        },
        {
          "internalType": "string",
          "name": "date",
          "type": "string"
        }
      ],
      "name": "addReceipt",
      "outputs": [],
      "stateMutability": "nonpayable",
      "type": "function"
    },
    {
      "inputs": [],
      "name": "getAllReceipts",
      "outputs": [
        {
          "components": [
            {
              "internalType": "string",
              "name": "patientName",
              "type": "string"
            },
            {
              "internalType": "uint256",
              "name": "doctorId",
              "type": "uint256"
            },
            {
              "internalType": "uint256",
              "name": "pharmaId",
              "type": "uint256"
            },
            {
              "internalType": "string[][]",
              "name": "medicines",
              "type": "string[][]"
            },
            {
              "internalType": "string",
              "name": "date",
              "type": "string"
            },
            {
              "internalType": "uint256",
              "name": "timestamp",
              "type": "uint256"
            }
          ],
          "internalType": "struct DrugInventory.Receipt[]",
          "name": "",
          "type": "tuple[]"
        }
      ],
      "stateMutability": "view",
      "type": "function",
      "constant": true
    },
    {
      "inputs": [],
      "name": "getReceiptsCount",
      "outputs": [
        {
          "internalType": "uint256",
          "name": "",
          "type": "uint256"
        }
      ],
      "stateMutability": "view",
      "type": "function",
      "constant": true
    }
  ],
  "bytecode": "0x608060405234801561001057600080fd5b506112a3806100206000396000f3fe608060405234801561001057600080fd5b50600436106100415760003560e01c806328fa6f90146100465780636dc37f9414610062578063b926be2014610080575b600080fd5b610060600480360381019061005b9190610960565b61009e565b005b61006a6101c0565b6040516100779190610a3e565b60405180910390f35b6100886101c9565b6040516100959190610dc4565b60405180910390f35b60016040518060c00160405280878152602001868152602001858152602001848152602001838152602001428152509080600181540180825580915050600190039060005260206000209060060201600090919091909150600082015181600001908161010b9190610ff2565b506020820151816001015560408201518160020155606082015181600301908051906020019061013c92919061048a565b5060808201518160040190816101529190610ff2565b5060a082015181600501555050600160008082825461017191906110f3565b925050819055507ff390109c90a80e3cb63ec6e7576b226e46fc7d50e005632e2fd7041b65bd5f938585858585426040516101b1969594939291906111f7565b60405180910390a15050505050565b60008054905090565b60606001805480602002602001604051908101604052809291908181526020016000905b8282101561048157838290600052602060002090600602016040518060c001604052908160008201805461022090610e15565b80601f016020809104026020016040519081016040528092919081815260200182805461024c90610e15565b80156102995780601f1061026e57610100808354040283529160200191610299565b820191906000526020600020905b81548152906001019060200180831161027c57829003601f168201915b50505050508152602001600182015481526020016002820154815260200160038201805480602002602001604051908101604052809291908181526020016000905b828210156103ce57838290600052602060002001805480602002602001604051908101604052809291908181526020016000905b828210156103bb57838290600052602060002001805461032e90610e15565b80601f016020809104026020016040519081016040528092919081815260200182805461035a90610e15565b80156103a75780601f1061037c576101008083540402835291602001916103a7565b820191906000526020600020905b81548152906001019060200180831161038a57829003601f168201915b50505050508152602001906001019061030f565b50505050815260200190600101906102db565b5050505081526020016004820180546103e690610e15565b80601f016020809104026020016040519081016040528092919081815260200182805461041290610e15565b801561045f5780601f106104345761010080835404028352916020019161045f565b820191906000526020600020905b81548152906001019060200180831161044257829003601f168201915b50505050508152602001600582015481525050815260200190600101906101ed565b50505050905090565b8280548282559060005260206000209081019282156104d9579160200282015b828111156104d85782518290805190602001906104c89291906104ea565b50916020019190600101906104aa565b5b5090506104e69190610543565b5090565b828054828255906000526020600020908101928215610532579160200282015b828111156105315782518290816105219190610ff2565b509160200191906001019061050a565b5b50905061053f9190610567565b5090565b5b80821115610563576000818161055a919061058b565b50600101610544565b5090565b5b80821115610587576000818161057e91906105ac565b50600101610568565b5090565b50805460008255906000526020600020908101906105a99190610567565b50565b5080546105b890610e15565b6000825580601f106105ca57506105e9565b601f0160209004906000526020600020908101906105e891906105ec565b5b50565b5b808211156106055760008160009055506001016105ed565b5090565b6000604051905090565b600080fd5b600080fd5b600080fd5b600080fd5b6000601f19601f8301169050919050565b7f4e487b7100000000000000000000000000000000000000000000000000000000600052604160045260246000fd5b61067082610627565b810181811067ffffffffffffffff8211171561068f5761068e610638565b5b80604052505050565b60006106a2610609565b90506106ae8282610667565b919050565b600067ffffffffffffffff8211156106ce576106cd610638565b5b6106d782610627565b9050602081019050919050565b82818337600083830152505050565b6000610706610701846106b3565b610698565b90508281526020810184848401111561072257610721610622565b5b61072d8482856106e4565b509392505050565b600082601f83011261074a5761074961061d565b5b813561075a8482602086016106f3565b91505092915050565b6000819050919050565b61077681610763565b811461078157600080fd5b50565b6000813590506107938161076d565b92915050565b600067ffffffffffffffff8211156107b4576107b3610638565b5b602082029050602081019050919050565b600080fd5b600067ffffffffffffffff8211156107e5576107e4610638565b5b602082029050602081019050919050565b6000610809610804846107ca565b610698565b9050808382526020820190506020840283018581111561082c5761082b6107c5565b5b835b8181101561087357803567ffffffffffffffff8111156108515761085061061d565b5b80860161085e8982610735565b8552602085019450505060208101905061082e565b5050509392505050565b600082601f8301126108925761089161061d565b5b81356108a28482602086016107f6565b91505092915050565b60006108be6108b984610799565b610698565b905080838252602082019050602084028301858111156108e1576108e06107c5565b5b835b8181101561092857803567ffffffffffffffff8111156109065761090561061d565b5b808601610913898261087d565b855260208501945050506020810190506108e3565b5050509392505050565b600082601f8301126109475761094661061d565b5b81356109578482602086016108ab565b91505092915050565b600080600080600060a0868803121561097c5761097b610613565b5b600086013567ffffffffffffffff81111561099a57610999610618565b5b6109a688828901610735565b95505060206109b788828901610784565b94505060406109c888828901610784565b935050606086013567ffffffffffffffff8111156109e9576109e8610618565b5b6109f588828901610932565b925050608086013567ffffffffffffffff811115610a1657610a15610618565b5b610a2288828901610735565b9150509295509295909350565b610a3881610763565b82525050565b6000602082019050610a536000830184610a2f565b92915050565b600081519050919050565b600082825260208201905092915050565b6000819050602082019050919050565b600081519050919050565b600082825260208201905092915050565b60005b83811015610abf578082015181840152602081019050610aa4565b60008484015250505050565b6000610ad682610a85565b610ae08185610a90565b9350610af0818560208601610aa1565b610af981610627565b840191505092915050565b610b0d81610763565b82525050565b600081519050919050565b600082825260208201905092915050565b6000819050602082019050919050565b600081519050919050565b600082825260208201905092915050565b6000819050602082019050919050565b6000610b778383610acb565b905092915050565b6000602082019050919050565b6000610b9782610b3f565b610ba18185610b4a565b935083602082028501610bb385610b5b565b8060005b85811015610bef5784840389528151610bd08582610b6b565b9450610bdb83610b7f565b925060208a01995050600181019050610bb7565b50829750879550505050505092915050565b6000610c0d8383610b8c565b905092915050565b6000602082019050919050565b6000610c2d82610b13565b610c378185610b1e565b935083602082028501610c4985610b2f565b8060005b85811015610c855784840389528151610c668582610c01565b9450610c7183610c15565b925060208a01995050600181019050610c4d565b50829750879550505050505092915050565b600060c0830160008301518482036000860152610cb48282610acb565b9150506020830151610cc96020860182610b04565b506040830151610cdc6040860182610b04565b5060608301518482036060860152610cf48282610c22565b91505060808301518482036080860152610d0e8282610acb565b91505060a0830151610d2360a0860182610b04565b508091505092915050565b6000610d3a8383610c97565b905092915050565b6000602082019050919050565b6000610d5a82610a59565b610d648185610a64565b935083602082028501610d7685610a75565b8060005b85811015610db25784840389528151610d938582610d2e565b9450610d9e83610d42565b925060208a01995050600181019050610d7a565b50829750879550505050505092915050565b60006020820190508181036000830152610dde8184610d4f565b905092915050565b7f4e487b7100000000000000000000000000000000000000000000000000000000600052602260045260246000fd5b60006002820490506001821680610e2d57607f821691505b602082108103610e4057610e3f610de6565b5b50919050565b60008190508160005260206000209050919050565b60006020601f8301049050919050565b600082821b905092915050565b600060088302610ea87fffffffffffffffffffffffffffffffffffffffffffffffffffffffffffffffff82610e6b565b610eb28683610e6b565b95508019841693508086168417925050509392505050565b6000819050919050565b6000610eef610eea610ee584610763565b610eca565b610763565b9050919050565b6000819050919050565b610f0983610ed4565b610f1d610f1582610ef6565b848454610e78565b825550505050565b600090565b610f32610f25565b610f3d818484610f00565b505050565b5b81811015610f6157610f56600082610f2a565b600181019050610f43565b5050565b601f821115610fa657610f7781610e46565b610f8084610e5b565b81016020851015610f8f578190505b610fa3610f9b85610e5b565b830182610f42565b50505b505050565b600082821c905092915050565b6000610fc960001984600802610fab565b1980831691505092915050565b6000610fe28383610fb8565b9150826002028217905092915050565b610ffb82610a85565b67ffffffffffffffff81111561101457611013610638565b5b61101e8254610e15565b611029828285610f65565b600060209050601f83116001811461105c576000841561104a578287015190505b6110548582610fd6565b8655506110bc565b601f19841661106a86610e46565b60005b828110156110925784890151825560018201915060208501945060208101905061106d565b868310156110af57848901516110ab601f891682610fb8565b8355505b6001600288020188555050505b505050505050565b7f4e487b7100000000000000000000000000000000000000000000000000000000600052601160045260246000fd5b60006110fe82610763565b915061110983610763565b9250828201905080821115611121576111206110c4565b5b92915050565b600082825260208201905092915050565b600061114382610a85565b61114d8185611127565b935061115d818560208601610aa1565b61116681610627565b840191505092915050565b600082825260208201905092915050565b600061118d82610b13565b6111978185611171565b9350836020820285016111a985610b2f565b8060005b858110156111e557848403895281516111c68582610c01565b94506111d183610c15565b925060208a019950506001810190506111ad565b50829750879550505050505092915050565b600060c08201905081810360008301526112118189611138565b90506112206020830188610a2f565b61122d6040830187610a2f565b818103606083015261123f8186611182565b905081810360808301526112538185611138565b905061126260a0830184610a2f565b97965050505050505056fea2646970667358221220824b762b8ffecdd0723101805aecb3d5a8b13e155a1e47ca4ddf30113437ed8d64736f6c63430008120033",
  "immutableReferences": {},
  "source": "// SPDX-License-Identifier: UNLICENSED\r\npragma solidity ^0.8.9;\r\n\r\ncontract DrugInventory {\r\n    uint256 receiptsGenerated;\r\n    struct Receipt {\r\n        string patientName;\r\n        uint256 doctorId;\r\n        uint256 pharmaId;\r\n        string[][] medicines;\r\n        string date;\r\n        uint256 timestamp;\r\n    }\r\n    event generateReceipt(\r\n        string patientName,\r\n        uint256 doctorId,\r\n        uint256 pharmaId,\r\n        string[][] medicines,\r\n        string date,\r\n        uint256 timestamp\r\n    );\r\n    Receipt[] receipts;\r\n\r\n    function addReceipt(\r\n        string memory pname,\r\n        uint256 docid,\r\n        uint256 phid,\r\n        string[][] memory _medicines,\r\n        string memory date\r\n    ) public {\r\n        receipts.push(Receipt(pname, docid, phid, _medicines, date, block.timestamp));\r\n        receiptsGenerated += 1;\r\n        emit generateReceipt(pname, docid, phid, _medicines, date, block.timestamp);\r\n    }\r\n\r\n    function getAllReceipts() public view returns (Receipt[] memory) {\r\n        return receipts;\r\n    }\r\n\r\n    function getReceiptsCount() public view returns (uint256) {\r\n        return receiptsGenerated;\r\n    }\r\n}\r\n",
  "sourcePath": "D:\\SASTRA\\Blockchain\\Healthcare dApp\\smart_contracts\\contracts\\DrugInventory.sol",
  "compiler": {
    "name": "solc",
    "version": "0.8.18+commit.87f61d96.Emscripten.clang"
  },
  "schemaVersion": "3.4.12",
  "updatedAt": "2023-04-11T08:46:58.671Z",
  "networkType": "ethereum",
  "devdoc": {
    "kind": "dev",
    "methods": {},
    "version": 1
  },
  "userdoc": {
    "kind": "user",
    "methods": {},
    "version": 1
  }
}