{
  "contractName": "DrugInventory",
  "abi": [
    {
      "anonymous": false,
      "inputs": [
        {
          "indexed": false,
          "internalType": "string",
          "name": "patientName",
          "type": "string"
        },
        {
          "indexed": false,
          "internalType": "uint256",
          "name": "doctorId",
          "type": "uint256"
        },
        {
          "indexed": false,
          "internalType": "uint256",
          "name": "pharmaId",
          "type": "uint256"
        },
        {
          "indexed": false,
          "internalType": "string[][]",
          "name": "medicines",
          "type": "string[][]"
        },
        {
          "indexed": false,
          "internalType": "uint256",
          "name": "timestamp",
          "type": "uint256"
        }
      ],
      "name": "generateReceipt",
      "type": "event"
    },
    {
      "inputs": [
        {
          "internalType": "uint256",
          "name": "",
          "type": "uint256"
        }
      ],
      "name": "receipts",
      "outputs": [
        {
          "internalType": "string",
          "name": "patientName",
          "type": "string"
        },
        {
          "internalType": "uint256",
          "name": "doctorId",
          "type": "uint256"
        },
        {
          "internalType": "uint256",
          "name": "pharmaId",
          "type": "uint256"
        },
        {
          "internalType": "uint256",
          "name": "timestamp",
          "type": "uint256"
        }
      ],
      "stateMutability": "view",
      "type": "function",
      "constant": true
    },
    {
      "inputs": [
        {
          "internalType": "string",
          "name": "pname",
          "type": "string"
        },
        {
          "internalType": "uint256",
          "name": "docid",
          "type": "uint256"
        },
        {
          "internalType": "uint256",
          "name": "phid",
          "type": "uint256"
        },
        {
          "internalType": "string[][]",
          "name": "_medicines",
          "type": "string[][]"
        }
      ],
      "name": "addReceipt",
      "outputs": [],
      "stateMutability": "nonpayable",
      "type": "function"
    },
    {
      "inputs": [],
      "name": "getAllReceipts",
      "outputs": [
        {
          "components": [
            {
              "internalType": "string",
              "name": "patientName",
              "type": "string"
            },
            {
              "internalType": "uint256",
              "name": "doctorId",
              "type": "uint256"
            },
            {
              "internalType": "uint256",
              "name": "pharmaId",
              "type": "uint256"
            },
            {
              "internalType": "string[][]",
              "name": "medicines",
              "type": "string[][]"
            },
            {
              "internalType": "uint256",
              "name": "timestamp",
              "type": "uint256"
            }
          ],
          "internalType": "struct DrugInventory.Receipt[]",
          "name": "",
          "type": "tuple[]"
        }
      ],
      "stateMutability": "view",
      "type": "function",
      "constant": true
    },
    {
      "inputs": [],
      "name": "getReceiptsCount",
      "outputs": [
        {
          "internalType": "uint256",
          "name": "",
          "type": "uint256"
        }
      ],
      "stateMutability": "view",
      "type": "function",
      "constant": true
    }
  ],
  "bytecode": "0x608060405234801561001057600080fd5b50611312806100206000396000f3fe608060405234801561001057600080fd5b506004361061004c5760003560e01c80630f7ee1ec146100515780636dc37f9414610084578063b926be20146100a2578063f878a0c6146100c0575b600080fd5b61006b600480360381019061006691906106a8565b6100dc565b60405161007b9493929190610774565b60405180910390f35b61008c6101a4565b60405161009991906107c0565b60405180910390f35b6100aa6101ad565b6040516100b79190610af7565b60405180910390f35b6100da60048036038101906100d59190610e15565b6103dc565b005b600181815481106100ec57600080fd5b906000526020600020906005020160009150905080600001805461010f90610ee3565b80601f016020809104026020016040519081016040528092919081815260200182805461013b90610ee3565b80156101885780601f1061015d57610100808354040283529160200191610188565b820191906000526020600020905b81548152906001019060200180831161016b57829003601f168201915b5050505050908060010154908060020154908060040154905084565b60008054905090565b60606001805480602002602001604051908101604052809291908181526020016000905b828210156103d357838290600052602060002090600502016040518060a001604052908160008201805461020490610ee3565b80601f016020809104026020016040519081016040528092919081815260200182805461023090610ee3565b801561027d5780601f106102525761010080835404028352916020019161027d565b820191906000526020600020905b81548152906001019060200180831161026057829003601f168201915b50505050508152602001600182015481526020016002820154815260200160038201805480602002602001604051908101604052809291908181526020016000905b828210156103b257838290600052602060002001805480602002602001604051908101604052809291908181526020016000905b8282101561039f57838290600052602060002001805461031290610ee3565b80601f016020809104026020016040519081016040528092919081815260200182805461033e90610ee3565b801561038b5780601f106103605761010080835404028352916020019161038b565b820191906000526020600020905b81548152906001019060200180831161036e57829003601f168201915b5050505050815260200190600101906102f3565b50505050815260200190600101906102bf565b505050508152602001600482015481525050815260200190600101906101d1565b50505050905090565b60016040518060a00160405280868152602001858152602001848152602001838152602001428152509080600181540180825580915050600190039060005260206000209060050201600090919091909150600082015181600001908161044391906110c0565b50602082015181600101556040820151816002015560608201518160030190805190602001906104749291906104df565b50608082015181600401555050600160008082825461049391906111c1565b925050819055507f799141c3dec230418fd08447998294fb2681dd258e184b3c67e338f1b317013684848484426040516104d195949392919061127b565b60405180910390a150505050565b82805482825590600052602060002090810192821561052e579160200282015b8281111561052d57825182908051906020019061051d92919061053f565b50916020019190600101906104ff565b5b50905061053b9190610598565b5090565b828054828255906000526020600020908101928215610587579160200282015b8281111561058657825182908161057691906110c0565b509160200191906001019061055f565b5b50905061059491906105bc565b5090565b5b808211156105b857600081816105af91906105e0565b50600101610599565b5090565b5b808211156105dc57600081816105d39190610601565b506001016105bd565b5090565b50805460008255906000526020600020908101906105fe91906105bc565b50565b50805461060d90610ee3565b6000825580601f1061061f575061063e565b601f01602090049060005260206000209081019061063d9190610641565b5b50565b5b8082111561065a576000816000905550600101610642565b5090565b6000604051905090565b600080fd5b600080fd5b6000819050919050565b61068581610672565b811461069057600080fd5b50565b6000813590506106a28161067c565b92915050565b6000602082840312156106be576106bd610668565b5b60006106cc84828501610693565b91505092915050565b600081519050919050565b600082825260208201905092915050565b60005b8381101561070f5780820151818401526020810190506106f4565b60008484015250505050565b6000601f19601f8301169050919050565b6000610737826106d5565b61074181856106e0565b93506107518185602086016106f1565b61075a8161071b565b840191505092915050565b61076e81610672565b82525050565b6000608082019050818103600083015261078e818761072c565b905061079d6020830186610765565b6107aa6040830185610765565b6107b76060830184610765565b95945050505050565b60006020820190506107d56000830184610765565b92915050565b600081519050919050565b600082825260208201905092915050565b6000819050602082019050919050565b600082825260208201905092915050565b6000610823826106d5565b61082d8185610807565b935061083d8185602086016106f1565b6108468161071b565b840191505092915050565b61085a81610672565b82525050565b600081519050919050565b600082825260208201905092915050565b6000819050602082019050919050565b600081519050919050565b600082825260208201905092915050565b6000819050602082019050919050565b60006108c48383610818565b905092915050565b6000602082019050919050565b60006108e48261088c565b6108ee8185610897565b935083602082028501610900856108a8565b8060005b8581101561093c578484038952815161091d85826108b8565b9450610928836108cc565b925060208a01995050600181019050610904565b50829750879550505050505092915050565b600061095a83836108d9565b905092915050565b6000602082019050919050565b600061097a82610860565b610984818561086b565b9350836020820285016109968561087c565b8060005b858110156109d257848403895281516109b3858261094e565b94506109be83610962565b925060208a0199505060018101905061099a565b50829750879550505050505092915050565b600060a0830160008301518482036000860152610a018282610818565b9150506020830151610a166020860182610851565b506040830151610a296040860182610851565b5060608301518482036060860152610a41828261096f565b9150506080830151610a566080860182610851565b508091505092915050565b6000610a6d83836109e4565b905092915050565b6000602082019050919050565b6000610a8d826107db565b610a9781856107e6565b935083602082028501610aa9856107f7565b8060005b85811015610ae55784840389528151610ac68582610a61565b9450610ad183610a75565b925060208a01995050600181019050610aad565b50829750879550505050505092915050565b60006020820190508181036000830152610b118184610a82565b905092915050565b600080fd5b600080fd5b7f4e487b7100000000000000000000000000000000000000000000000000000000600052604160045260246000fd5b610b5b8261071b565b810181811067ffffffffffffffff82111715610b7a57610b79610b23565b5b80604052505050565b6000610b8d61065e565b9050610b998282610b52565b919050565b600067ffffffffffffffff821115610bb957610bb8610b23565b5b610bc28261071b565b9050602081019050919050565b82818337600083830152505050565b6000610bf1610bec84610b9e565b610b83565b905082815260208101848484011115610c0d57610c0c610b1e565b5b610c18848285610bcf565b509392505050565b600082601f830112610c3557610c34610b19565b5b8135610c45848260208601610bde565b91505092915050565b600067ffffffffffffffff821115610c6957610c68610b23565b5b602082029050602081019050919050565b600080fd5b600067ffffffffffffffff821115610c9a57610c99610b23565b5b602082029050602081019050919050565b6000610cbe610cb984610c7f565b610b83565b90508083825260208201905060208402830185811115610ce157610ce0610c7a565b5b835b81811015610d2857803567ffffffffffffffff811115610d0657610d05610b19565b5b808601610d138982610c20565b85526020850194505050602081019050610ce3565b5050509392505050565b600082601f830112610d4757610d46610b19565b5b8135610d57848260208601610cab565b91505092915050565b6000610d73610d6e84610c4e565b610b83565b90508083825260208201905060208402830185811115610d9657610d95610c7a565b5b835b81811015610ddd57803567ffffffffffffffff811115610dbb57610dba610b19565b5b808601610dc88982610d32565b85526020850194505050602081019050610d98565b5050509392505050565b600082601f830112610dfc57610dfb610b19565b5b8135610e0c848260208601610d60565b91505092915050565b60008060008060808587031215610e2f57610e2e610668565b5b600085013567ffffffffffffffff811115610e4d57610e4c61066d565b5b610e5987828801610c20565b9450506020610e6a87828801610693565b9350506040610e7b87828801610693565b925050606085013567ffffffffffffffff811115610e9c57610e9b61066d565b5b610ea887828801610de7565b91505092959194509250565b7f4e487b7100000000000000000000000000000000000000000000000000000000600052602260045260246000fd5b60006002820490506001821680610efb57607f821691505b602082108103610f0e57610f0d610eb4565b5b50919050565b60008190508160005260206000209050919050565b60006020601f8301049050919050565b600082821b905092915050565b600060088302610f767fffffffffffffffffffffffffffffffffffffffffffffffffffffffffffffffff82610f39565b610f808683610f39565b95508019841693508086168417925050509392505050565b6000819050919050565b6000610fbd610fb8610fb384610672565b610f98565b610672565b9050919050565b6000819050919050565b610fd783610fa2565b610feb610fe382610fc4565b848454610f46565b825550505050565b600090565b611000610ff3565b61100b818484610fce565b505050565b5b8181101561102f57611024600082610ff8565b600181019050611011565b5050565b601f8211156110745761104581610f14565b61104e84610f29565b8101602085101561105d578190505b61107161106985610f29565b830182611010565b50505b505050565b600082821c905092915050565b600061109760001984600802611079565b1980831691505092915050565b60006110b08383611086565b9150826002028217905092915050565b6110c9826106d5565b67ffffffffffffffff8111156110e2576110e1610b23565b5b6110ec8254610ee3565b6110f7828285611033565b600060209050601f83116001811461112a5760008415611118578287015190505b61112285826110a4565b86555061118a565b601f19841661113886610f14565b60005b828110156111605784890151825560018201915060208501945060208101905061113b565b8683101561117d5784890151611179601f891682611086565b8355505b6001600288020188555050505b505050505050565b7f4e487b7100000000000000000000000000000000000000000000000000000000600052601160045260246000fd5b60006111cc82610672565b91506111d783610672565b92508282019050808211156111ef576111ee611192565b5b92915050565b600082825260208201905092915050565b600061121182610860565b61121b81856111f5565b93508360208202850161122d8561087c565b8060005b85811015611269578484038952815161124a858261094e565b945061125583610962565b925060208a01995050600181019050611231565b50829750879550505050505092915050565b600060a0820190508181036000830152611295818861072c565b90506112a46020830187610765565b6112b16040830186610765565b81810360608301526112c38185611206565b90506112d26080830184610765565b969550505050505056fea2646970667358221220ce4e7a4d756cd79a5de17a4e5bea6d7e219a73ed4f8ba63f275221147145660964736f6c63430008120033",
  "immutableReferences": {},
  "source": "// SPDX-License-Identifier: UNLICENSED\r\npragma solidity ^0.8.9;\r\n\r\n/*contract DrugSales{\r\n    uint256 salesCounter;\r\n\r\n    struct Receipt{\r\n        string patient;\r\n        string doctor;\r\n        string pharmacist;\r\n        string[][] medicines;\r\n        uint256 timestamp;\r\n    }\r\n\r\n    Receipt[] receipts;\r\n    event generateReceipt(string patient, string doctor, string pharmacist, string[][] medicines, uint256 timestamp);\r\n\r\n    function addToBlockchain(string memory patient,string memory doctor, string memory pharmacist, string[][] memory medicines) public {\r\n        salesCounter+=1;\r\n        receipts.push(Receipt(patient, doctor, pharmacist, medicines, block.timestamp));\r\n\r\n        emit generateReceipt(patient, doctor, pharmacist, medicines, block.timestamp);\r\n    }\r\n\r\n    function getAllReceipts() public view returns (Receipt[] memory) {\r\n        return receipts;\r\n    } \r\n\r\n    function getReceiptsCount() public view returns (uint256){\r\n        return salesCounter;\r\n    }\r\n}*/\r\ncontract DrugInventory {\r\n    uint256 receiptsGenerated;\r\n    struct Receipt {\r\n        string patientName;\r\n        uint256 doctorId;\r\n        uint256 pharmaId;\r\n        string[][] medicines;\r\n        uint256 timestamp;\r\n    }\r\n    event generateReceipt(\r\n        string patientName,\r\n        uint256 doctorId,\r\n        uint256 pharmaId,\r\n        string[][] medicines,\r\n        uint256 timestamp\r\n    );\r\n    Receipt[] public receipts;\r\n\r\n    function addReceipt(\r\n        string memory pname,\r\n        uint256 docid,\r\n        uint256 phid,\r\n        string[][] memory _medicines\r\n    ) public {\r\n        receipts.push(Receipt(pname, docid, phid, _medicines, block.timestamp));\r\n        receiptsGenerated += 1;\r\n        emit generateReceipt(pname, docid, phid, _medicines, block.timestamp);\r\n    }\r\n\r\n    function getAllReceipts() public view returns (Receipt[] memory) {\r\n        return receipts;\r\n    }\r\n\r\n    function getReceiptsCount() public view returns (uint256) {\r\n        return receiptsGenerated;\r\n    }\r\n}\r\n",
  "sourcePath": "D:\\SASTRA\\Blockchain\\Healthcare dApp\\smart_contracts\\contracts\\DrugInventory.sol",
  "compiler": {
    "name": "solc",
    "version": "0.8.18+commit.87f61d96.Emscripten.clang"
  },
  "schemaVersion": "3.4.12",
  "updatedAt": "2023-03-20T11:24:33.307Z",
  "networkType": "ethereum",
  "devdoc": {
    "kind": "dev",
    "methods": {},
    "version": 1
  },
  "userdoc": {
    "kind": "user",
    "methods": {},
    "version": 1
  }
}