{
  "contractName": "DrugInventory",
  "abi": [
    {
      "anonymous": false,
      "inputs": [
        {
          "indexed": false,
          "internalType": "address",
          "name": "sender",
          "type": "address"
        },
        {
          "indexed": false,
          "internalType": "uint256",
          "name": "rfid",
          "type": "uint256"
        },
        {
          "indexed": false,
          "internalType": "uint256",
          "name": "lotNo",
          "type": "uint256"
        },
        {
          "indexed": false,
          "internalType": "string",
          "name": "medName",
          "type": "string"
        },
        {
          "indexed": false,
          "internalType": "uint256",
          "name": "qty",
          "type": "uint256"
        },
        {
          "indexed": false,
          "internalType": "uint256",
          "name": "ppu",
          "type": "uint256"
        },
        {
          "indexed": false,
          "internalType": "string",
          "name": "manufacturer",
          "type": "string"
        },
        {
          "indexed": false,
          "internalType": "string",
          "name": "expiryDate",
          "type": "string"
        },
        {
          "indexed": false,
          "internalType": "uint256",
          "name": "blockNo",
          "type": "uint256"
        },
        {
          "indexed": false,
          "internalType": "uint256",
          "name": "timestamp",
          "type": "uint256"
        }
      ],
      "name": "addMedicine",
      "type": "event"
    },
    {
      "anonymous": false,
      "inputs": [
        {
          "indexed": false,
          "internalType": "string",
          "name": "patientName",
          "type": "string"
        },
        {
          "indexed": false,
          "internalType": "uint256",
          "name": "doctorId",
          "type": "uint256"
        },
        {
          "indexed": false,
          "internalType": "uint256",
          "name": "pharmaId",
          "type": "uint256"
        },
        {
          "indexed": false,
          "internalType": "string[][]",
          "name": "medicines",
          "type": "string[][]"
        },
        {
          "indexed": false,
          "internalType": "string",
          "name": "date",
          "type": "string"
        },
        {
          "indexed": false,
          "internalType": "uint256",
          "name": "timestamp",
          "type": "uint256"
        }
      ],
      "name": "generateReceipt",
      "type": "event"
    },
    {
      "inputs": [
        {
          "internalType": "string",
          "name": "pname",
          "type": "string"
        },
        {
          "internalType": "uint256",
          "name": "docid",
          "type": "uint256"
        },
        {
          "internalType": "uint256",
          "name": "phid",
          "type": "uint256"
        },
        {
          "internalType": "string[][]",
          "name": "_medicines",
          "type": "string[][]"
        },
        {
          "internalType": "string",
          "name": "date",
          "type": "string"
        }
      ],
      "name": "addReceipt",
      "outputs": [],
      "stateMutability": "nonpayable",
      "type": "function"
    },
    {
      "inputs": [
        {
          "internalType": "string",
          "name": "s",
          "type": "string"
        }
      ],
      "name": "stringToUint",
      "outputs": [
        {
          "internalType": "uint256",
          "name": "",
          "type": "uint256"
        }
      ],
      "stateMutability": "pure",
      "type": "function",
      "constant": true
    },
    {
      "inputs": [
        {
          "internalType": "uint256",
          "name": "rfid",
          "type": "uint256"
        },
        {
          "internalType": "uint256",
          "name": "lotNo",
          "type": "uint256"
        },
        {
          "internalType": "string",
          "name": "medName",
          "type": "string"
        },
        {
          "internalType": "uint256",
          "name": "qty",
          "type": "uint256"
        },
        {
          "internalType": "uint256",
          "name": "ppu",
          "type": "uint256"
        },
        {
          "internalType": "string",
          "name": "manufacturer",
          "type": "string"
        },
        {
          "internalType": "string",
          "name": "expiryDate",
          "type": "string"
        }
      ],
      "name": "pushMedicine",
      "outputs": [],
      "stateMutability": "nonpayable",
      "type": "function"
    },
    {
      "inputs": [],
      "name": "getAllMedicines",
      "outputs": [
        {
          "components": [
            {
              "internalType": "address",
              "name": "sender",
              "type": "address"
            },
            {
              "internalType": "uint256",
              "name": "rfid",
              "type": "uint256"
            },
            {
              "internalType": "uint256",
              "name": "lotNo",
              "type": "uint256"
            },
            {
              "internalType": "string",
              "name": "medName",
              "type": "string"
            },
            {
              "internalType": "uint256",
              "name": "qty",
              "type": "uint256"
            },
            {
              "internalType": "uint256",
              "name": "ppu",
              "type": "uint256"
            },
            {
              "internalType": "string",
              "name": "manufacturer",
              "type": "string"
            },
            {
              "internalType": "string",
              "name": "expiryDate",
              "type": "string"
            },
            {
              "internalType": "uint256",
              "name": "blockNo",
              "type": "uint256"
            },
            {
              "internalType": "uint256",
              "name": "timestamp",
              "type": "uint256"
            }
          ],
          "internalType": "struct DrugInventory.Medicine[]",
          "name": "",
          "type": "tuple[]"
        }
      ],
      "stateMutability": "view",
      "type": "function",
      "constant": true
    },
    {
      "inputs": [],
      "name": "getAllReceipts",
      "outputs": [
        {
          "components": [
            {
              "internalType": "string",
              "name": "patientName",
              "type": "string"
            },
            {
              "internalType": "uint256",
              "name": "doctorId",
              "type": "uint256"
            },
            {
              "internalType": "uint256",
              "name": "pharmaId",
              "type": "uint256"
            },
            {
              "internalType": "string[][]",
              "name": "medicines",
              "type": "string[][]"
            },
            {
              "internalType": "string",
              "name": "date",
              "type": "string"
            },
            {
              "internalType": "uint256",
              "name": "timestamp",
              "type": "uint256"
            }
          ],
          "internalType": "struct DrugInventory.Receipt[]",
          "name": "",
          "type": "tuple[]"
        }
      ],
      "stateMutability": "view",
      "type": "function",
      "constant": true
    },
    {
      "inputs": [],
      "name": "getReceiptsCount",
      "outputs": [
        {
          "internalType": "uint256",
          "name": "",
          "type": "uint256"
        }
      ],
      "stateMutability": "view",
      "type": "function",
      "constant": true
    }
  ],
  "bytecode": "0x608060405234801561001057600080fd5b50611f41806100206000396000f3fe608060405234801561001057600080fd5b50600436106100625760003560e01c80631bd951551461006757806328fa6f901461009757806351a781b1146100b357806368f2b1d2146100cf5780636dc37f94146100ed578063b926be201461010b575b600080fd5b610081600480360381019061007c9190610e9c565b610129565b60405161008e9190610efe565b60405180910390f35b6100b160048036038101906100ac919061110c565b6101c1565b005b6100cd60048036038101906100c891906111db565b6104af565b005b6100d7610651565b6040516100e4919061154a565b60405180910390f35b6100f56108f9565b6040516101029190610efe565b60405180910390f35b610113610902565b6040516101209190611849565b60405180910390f35b6000808290506000805b82518110156101b65760008382815181106101515761015061186b565b5b602001015160f81c60f81b60f81c60ff16905060308110158015610176575060398111155b156101a25760308161018891906118c9565b600a8461019591906118fd565b61019f919061193f565b92505b5080806101ae90611973565b915050610133565b508092505050919050565b60005b60028054905081101561038c5760005b83518110156103785761021b8482815181106101f3576101f261186b565b5b602002602001015160008151811061020e5761020d61186b565b5b6020026020010151610129565b6002838154811061022f5761022e61186b565b5b90600052602060002090600a020160010154036103655761028484828151811061025c5761025b61186b565b5b60200260200101516001815181106102775761027661186b565b5b6020026020010151610129565b600283815481106102985761029761186b565b5b90600052602060002090600a02016004015410156102eb576040517f08c379a00000000000000000000000000000000000000000000000000000000081526004016102e290611a18565b60405180910390fd5b6103298482815181106103015761030061186b565b5b602002602001015160018151811061031c5761031b61186b565b5b6020026020010151610129565b6002838154811061033d5761033c61186b565b5b90600052602060002090600a0201600401600082825461035d91906118c9565b925050819055505b808061037090611973565b9150506101d4565b50808061038490611973565b9150506101c4565b5060016040518060c0016040528087815260200186815260200185815260200184815260200183815260200142815250908060018154018082558091505060019003906000526020600020906006020160009091909190915060008201518160000190816103fa9190611c44565b506020820151816001015560408201518160020155606082015181600301908051906020019061042b929190610bc3565b5060808201518160040190816104419190611c44565b5060a0820151816005015550506001600080828254610460919061193f565b925050819055507ff390109c90a80e3cb63ec6e7576b226e46fc7d50e005632e2fd7041b65bd5f938585858585426040516104a096959493929190611dd5565b60405180910390a15050505050565b60026040518061014001604052803373ffffffffffffffffffffffffffffffffffffffff1681526020018981526020018881526020018781526020018681526020018581526020018481526020018381526020014381526020014281525090806001815401808255809150506001900390600052602060002090600a020160009091909190915060008201518160000160006101000a81548173ffffffffffffffffffffffffffffffffffffffff021916908373ffffffffffffffffffffffffffffffffffffffff160217905550602082015181600101556040820151816002015560608201518160030190816105a69190611c44565b506080820151816004015560a0820151816005015560c08201518160060190816105d09190611c44565b5060e08201518160070190816105e69190611c44565b506101008201518160080155610120820151816009015550507f45714eee0a4b3242b80ff06a26e174d9d83377b3bc4efdc32fd87953b0ab9b38338888888888888843426040516106409a99989796959493929190611e5a565b60405180910390a150505050505050565b60606002805480602002602001604051908101604052809291908181526020016000905b828210156108f057838290600052602060002090600a0201604051806101400160405290816000820160009054906101000a900473ffffffffffffffffffffffffffffffffffffffff1673ffffffffffffffffffffffffffffffffffffffff1673ffffffffffffffffffffffffffffffffffffffff168152602001600182015481526020016002820154815260200160038201805461071390611a67565b80601f016020809104026020016040519081016040528092919081815260200182805461073f90611a67565b801561078c5780601f106107615761010080835404028352916020019161078c565b820191906000526020600020905b81548152906001019060200180831161076f57829003601f168201915b5050505050815260200160048201548152602001600582015481526020016006820180546107b990611a67565b80601f01602080910402602001604051908101604052809291908181526020018280546107e590611a67565b80156108325780601f1061080757610100808354040283529160200191610832565b820191906000526020600020905b81548152906001019060200180831161081557829003601f168201915b5050505050815260200160078201805461084b90611a67565b80601f016020809104026020016040519081016040528092919081815260200182805461087790611a67565b80156108c45780601f10610899576101008083540402835291602001916108c4565b820191906000526020600020905b8154815290600101906020018083116108a757829003601f168201915b505050505081526020016008820154815260200160098201548152505081526020019060010190610675565b50505050905090565b60008054905090565b60606001805480602002602001604051908101604052809291908181526020016000905b82821015610bba57838290600052602060002090600602016040518060c001604052908160008201805461095990611a67565b80601f016020809104026020016040519081016040528092919081815260200182805461098590611a67565b80156109d25780601f106109a7576101008083540402835291602001916109d2565b820191906000526020600020905b8154815290600101906020018083116109b557829003601f168201915b50505050508152602001600182015481526020016002820154815260200160038201805480602002602001604051908101604052809291908181526020016000905b82821015610b0757838290600052602060002001805480602002602001604051908101604052809291908181526020016000905b82821015610af4578382906000526020600020018054610a6790611a67565b80601f0160208091040260200160405190810160405280929190818152602001828054610a9390611a67565b8015610ae05780601f10610ab557610100808354040283529160200191610ae0565b820191906000526020600020905b815481529060010190602001808311610ac357829003601f168201915b505050505081526020019060010190610a48565b5050505081526020019060010190610a14565b505050508152602001600482018054610b1f90611a67565b80601f0160208091040260200160405190810160405280929190818152602001828054610b4b90611a67565b8015610b985780601f10610b6d57610100808354040283529160200191610b98565b820191906000526020600020905b815481529060010190602001808311610b7b57829003601f168201915b5050505050815260200160058201548152505081526020019060010190610926565b50505050905090565b828054828255906000526020600020908101928215610c12579160200282015b82811115610c11578251829080519060200190610c01929190610c23565b5091602001919060010190610be3565b5b509050610c1f9190610c7c565b5090565b828054828255906000526020600020908101928215610c6b579160200282015b82811115610c6a578251829081610c5a9190611c44565b5091602001919060010190610c43565b5b509050610c789190610ca0565b5090565b5b80821115610c9c5760008181610c939190610cc4565b50600101610c7d565b5090565b5b80821115610cc05760008181610cb79190610ce5565b50600101610ca1565b5090565b5080546000825590600052602060002090810190610ce29190610ca0565b50565b508054610cf190611a67565b6000825580601f10610d035750610d22565b601f016020900490600052602060002090810190610d219190610d25565b5b50565b5b80821115610d3e576000816000905550600101610d26565b5090565b6000604051905090565b600080fd5b600080fd5b600080fd5b600080fd5b6000601f19601f8301169050919050565b7f4e487b7100000000000000000000000000000000000000000000000000000000600052604160045260246000fd5b610da982610d60565b810181811067ffffffffffffffff82111715610dc857610dc7610d71565b5b80604052505050565b6000610ddb610d42565b9050610de78282610da0565b919050565b600067ffffffffffffffff821115610e0757610e06610d71565b5b610e1082610d60565b9050602081019050919050565b82818337600083830152505050565b6000610e3f610e3a84610dec565b610dd1565b905082815260208101848484011115610e5b57610e5a610d5b565b5b610e66848285610e1d565b509392505050565b600082601f830112610e8357610e82610d56565b5b8135610e93848260208601610e2c565b91505092915050565b600060208284031215610eb257610eb1610d4c565b5b600082013567ffffffffffffffff811115610ed057610ecf610d51565b5b610edc84828501610e6e565b91505092915050565b6000819050919050565b610ef881610ee5565b82525050565b6000602082019050610f136000830184610eef565b92915050565b610f2281610ee5565b8114610f2d57600080fd5b50565b600081359050610f3f81610f19565b92915050565b600067ffffffffffffffff821115610f6057610f5f610d71565b5b602082029050602081019050919050565b600080fd5b600067ffffffffffffffff821115610f9157610f90610d71565b5b602082029050602081019050919050565b6000610fb5610fb084610f76565b610dd1565b90508083825260208201905060208402830185811115610fd857610fd7610f71565b5b835b8181101561101f57803567ffffffffffffffff811115610ffd57610ffc610d56565b5b80860161100a8982610e6e565b85526020850194505050602081019050610fda565b5050509392505050565b600082601f83011261103e5761103d610d56565b5b813561104e848260208601610fa2565b91505092915050565b600061106a61106584610f45565b610dd1565b9050808382526020820190506020840283018581111561108d5761108c610f71565b5b835b818110156110d457803567ffffffffffffffff8111156110b2576110b1610d56565b5b8086016110bf8982611029565b8552602085019450505060208101905061108f565b5050509392505050565b600082601f8301126110f3576110f2610d56565b5b8135611103848260208601611057565b91505092915050565b600080600080600060a0868803121561112857611127610d4c565b5b600086013567ffffffffffffffff81111561114657611145610d51565b5b61115288828901610e6e565b955050602061116388828901610f30565b945050604061117488828901610f30565b935050606086013567ffffffffffffffff81111561119557611194610d51565b5b6111a1888289016110de565b925050608086013567ffffffffffffffff8111156111c2576111c1610d51565b5b6111ce88828901610e6e565b9150509295509295909350565b600080600080600080600060e0888a0312156111fa576111f9610d4c565b5b60006112088a828b01610f30565b97505060206112198a828b01610f30565b965050604088013567ffffffffffffffff81111561123a57611239610d51565b5b6112468a828b01610e6e565b95505060606112578a828b01610f30565b94505060806112688a828b01610f30565b93505060a088013567ffffffffffffffff81111561128957611288610d51565b5b6112958a828b01610e6e565b92505060c088013567ffffffffffffffff8111156112b6576112b5610d51565b5b6112c28a828b01610e6e565b91505092959891949750929550565b600081519050919050565b600082825260208201905092915050565b6000819050602082019050919050565b600073ffffffffffffffffffffffffffffffffffffffff82169050919050565b6000611328826112fd565b9050919050565b6113388161131d565b82525050565b61134781610ee5565b82525050565b600081519050919050565b600082825260208201905092915050565b60005b8381101561138757808201518184015260208101905061136c565b60008484015250505050565b600061139e8261134d565b6113a88185611358565b93506113b8818560208601611369565b6113c181610d60565b840191505092915050565b6000610140830160008301516113e5600086018261132f565b5060208301516113f8602086018261133e565b50604083015161140b604086018261133e565b50606083015184820360608601526114238282611393565b9150506080830151611438608086018261133e565b5060a083015161144b60a086018261133e565b5060c083015184820360c08601526114638282611393565b91505060e083015184820360e086015261147d8282611393565b91505061010083015161149461010086018261133e565b506101208301516114a961012086018261133e565b508091505092915050565b60006114c083836113cc565b905092915050565b6000602082019050919050565b60006114e0826112d1565b6114ea81856112dc565b9350836020820285016114fc856112ed565b8060005b85811015611538578484038952815161151985826114b4565b9450611524836114c8565b925060208a01995050600181019050611500565b50829750879550505050505092915050565b6000602082019050818103600083015261156481846114d5565b905092915050565b600081519050919050565b600082825260208201905092915050565b6000819050602082019050919050565b600081519050919050565b600082825260208201905092915050565b6000819050602082019050919050565b600081519050919050565b600082825260208201905092915050565b6000819050602082019050919050565b60006115fc8383611393565b905092915050565b6000602082019050919050565b600061161c826115c4565b61162681856115cf565b935083602082028501611638856115e0565b8060005b85811015611674578484038952815161165585826115f0565b945061166083611604565b925060208a0199505060018101905061163c565b50829750879550505050505092915050565b60006116928383611611565b905092915050565b6000602082019050919050565b60006116b282611598565b6116bc81856115a3565b9350836020820285016116ce856115b4565b8060005b8581101561170a57848403895281516116eb8582611686565b94506116f68361169a565b925060208a019950506001810190506116d2565b50829750879550505050505092915050565b600060c08301600083015184820360008601526117398282611393565b915050602083015161174e602086018261133e565b506040830151611761604086018261133e565b506060830151848203606086015261177982826116a7565b915050608083015184820360808601526117938282611393565b91505060a08301516117a860a086018261133e565b508091505092915050565b60006117bf838361171c565b905092915050565b6000602082019050919050565b60006117df8261156c565b6117e98185611577565b9350836020820285016117fb85611588565b8060005b85811015611837578484038952815161181885826117b3565b9450611823836117c7565b925060208a019950506001810190506117ff565b50829750879550505050505092915050565b6000602082019050818103600083015261186381846117d4565b905092915050565b7f4e487b7100000000000000000000000000000000000000000000000000000000600052603260045260246000fd5b7f4e487b7100000000000000000000000000000000000000000000000000000000600052601160045260246000fd5b60006118d482610ee5565b91506118df83610ee5565b92508282039050818111156118f7576118f661189a565b5b92915050565b600061190882610ee5565b915061191383610ee5565b925082820261192181610ee5565b915082820484148315176119385761193761189a565b5b5092915050565b600061194a82610ee5565b915061195583610ee5565b925082820190508082111561196d5761196c61189a565b5b92915050565b600061197e82610ee5565b91507fffffffffffffffffffffffffffffffffffffffffffffffffffffffffffffffff82036119b0576119af61189a565b5b600182019050919050565b600082825260208201905092915050565b7f496e73756666696369656e74207175616e7469747920617661696c61626c6500600082015250565b6000611a02601f836119bb565b9150611a0d826119cc565b602082019050919050565b60006020820190508181036000830152611a31816119f5565b9050919050565b7f4e487b7100000000000000000000000000000000000000000000000000000000600052602260045260246000fd5b60006002820490506001821680611a7f57607f821691505b602082108103611a9257611a91611a38565b5b50919050565b60008190508160005260206000209050919050565b60006020601f8301049050919050565b600082821b905092915050565b600060088302611afa7fffffffffffffffffffffffffffffffffffffffffffffffffffffffffffffffff82611abd565b611b048683611abd565b95508019841693508086168417925050509392505050565b6000819050919050565b6000611b41611b3c611b3784610ee5565b611b1c565b610ee5565b9050919050565b6000819050919050565b611b5b83611b26565b611b6f611b6782611b48565b848454611aca565b825550505050565b600090565b611b84611b77565b611b8f818484611b52565b505050565b5b81811015611bb357611ba8600082611b7c565b600181019050611b95565b5050565b601f821115611bf857611bc981611a98565b611bd284611aad565b81016020851015611be1578190505b611bf5611bed85611aad565b830182611b94565b50505b505050565b600082821c905092915050565b6000611c1b60001984600802611bfd565b1980831691505092915050565b6000611c348383611c0a565b9150826002028217905092915050565b611c4d8261134d565b67ffffffffffffffff811115611c6657611c65610d71565b5b611c708254611a67565b611c7b828285611bb7565b600060209050601f831160018114611cae5760008415611c9c578287015190505b611ca68582611c28565b865550611d0e565b601f198416611cbc86611a98565b60005b82811015611ce457848901518255600182019150602085019450602081019050611cbf565b86831015611d015784890151611cfd601f891682611c0a565b8355505b6001600288020188555050505b505050505050565b6000611d218261134d565b611d2b81856119bb565b9350611d3b818560208601611369565b611d4481610d60565b840191505092915050565b600082825260208201905092915050565b6000611d6b82611598565b611d758185611d4f565b935083602082028501611d87856115b4565b8060005b85811015611dc35784840389528151611da48582611686565b9450611daf8361169a565b925060208a01995050600181019050611d8b565b50829750879550505050505092915050565b600060c0820190508181036000830152611def8189611d16565b9050611dfe6020830188610eef565b611e0b6040830187610eef565b8181036060830152611e1d8186611d60565b90508181036080830152611e318185611d16565b9050611e4060a0830184610eef565b979650505050505050565b611e548161131d565b82525050565b600061014082019050611e70600083018d611e4b565b611e7d602083018c610eef565b611e8a604083018b610eef565b8181036060830152611e9c818a611d16565b9050611eab6080830189610eef565b611eb860a0830188610eef565b81810360c0830152611eca8187611d16565b905081810360e0830152611ede8186611d16565b9050611eee610100830185610eef565b611efc610120830184610eef565b9b9a505050505050505050505056fea2646970667358221220c4896631b56fe6c721366a71ae6c4423c0b5a683bf76ab6fb83cfbc6b515ebf064736f6c63430008120033",
  "immutableReferences": {},
  "source": "// SPDX-License-Identifier: UNLICENSED\r\npragma solidity ^0.8.9;\r\n\r\ncontract DrugInventory {\r\n    uint256 receiptsGenerated;\r\n    struct Receipt {\r\n        string patientName;\r\n        uint256 doctorId;\r\n        uint256 pharmaId;\r\n        string[][] medicines;\r\n        string date;\r\n        uint256 timestamp;\r\n    }\r\n    \r\n    event generateReceipt(\r\n        string patientName,\r\n        uint256 doctorId,\r\n        uint256 pharmaId,\r\n        string[][] medicines,\r\n        string date,\r\n        uint256 timestamp\r\n    );\r\n    Receipt[] receipts;\r\n\r\n    struct Medicine {\r\n        address sender;\r\n        uint256 rfid;\r\n        uint lotNo;\r\n        string medName;\r\n        uint qty;\r\n        uint ppu;\r\n        string manufacturer;\r\n        string expiryDate;\r\n        uint256 blockNo;\r\n        uint256 timestamp;\r\n    }\r\n\r\n    event addMedicine(\r\n        address sender,\r\n        uint256 rfid,\r\n        uint lotNo,\r\n        string medName,\r\n        uint qty,\r\n        uint ppu,\r\n        string manufacturer,\r\n        string expiryDate,\r\n        uint256 blockNo,\r\n        uint256 timestamp\r\n    );\r\n\r\n    Medicine[] medicines;\r\n\r\n    function addReceipt(\r\n        string memory pname,\r\n        uint256 docid,\r\n        uint256 phid,\r\n        string[][] memory _medicines,\r\n        string memory date\r\n    ) public {\r\n        for (uint i = 0; i < medicines.length; i++) {\r\n            for(uint j=0; j<_medicines.length; j++) {\r\n                if(medicines[i].rfid == stringToUint(_medicines[j][0])){\r\n                    require(medicines[i].qty >= stringToUint(_medicines[j][1]),\"Insufficient quantity available\");\r\n                    medicines[i].qty -= stringToUint(_medicines[j][1]);\r\n                }\r\n            }\r\n        }\r\n        receipts.push(Receipt(pname, docid, phid, _medicines, date, block.timestamp));\r\n        receiptsGenerated += 1;\r\n        emit generateReceipt(pname, docid, phid, _medicines, date, block.timestamp);\r\n    }\r\n\r\n    function stringToUint(string memory s) public pure returns (uint) {\r\n        bytes memory b = bytes(s);\r\n        uint result = 0;\r\n        for (uint256 i = 0; i < b.length; i++) {\r\n            uint256 c = uint256(uint8(b[i]));\r\n            if (c >= 48 && c <= 57) {\r\n                result = result * 10 + (c - 48);\r\n            }\r\n        }\r\n        return result;\r\n    }\r\n\r\n    function pushMedicine(uint256 rfid,uint lotNo,string memory medName,uint qty, uint ppu,string memory manufacturer,string memory expiryDate) public{\r\n        medicines.push(Medicine(msg.sender,rfid,lotNo,medName,qty,ppu,manufacturer,expiryDate,block.number,block.timestamp));\r\n        emit addMedicine(msg.sender,rfid, lotNo, medName, qty, ppu, manufacturer, expiryDate, block.number, block.timestamp);\r\n    }\r\n\r\n    function getAllMedicines() public view returns (Medicine[] memory) {\r\n        return medicines;\r\n    }\r\n\r\n    function getAllReceipts() public view returns (Receipt[] memory) {\r\n        return receipts;\r\n    }\r\n\r\n    function getReceiptsCount() public view returns (uint256) {\r\n        return receiptsGenerated;\r\n    }\r\n}\r\n",
  "sourcePath": "D:\\SASTRA\\Blockchain\\Healthcare dApp\\smart_contracts\\contracts\\DrugInventory.sol",
  "compiler": {
    "name": "solc",
    "version": "0.8.18+commit.87f61d96.Emscripten.clang"
  },
  "schemaVersion": "3.4.12",
  "updatedAt": "2023-04-24T10:47:49.934Z",
  "networkType": "ethereum",
  "devdoc": {
    "kind": "dev",
    "methods": {},
    "version": 1
  },
  "userdoc": {
    "kind": "user",
    "methods": {},
    "version": 1
  }
}