{
  "contractName": "Appointments",
  "abi": [
    {
      "anonymous": false,
      "inputs": [
        {
          "indexed": false,
          "internalType": "string",
          "name": "patient",
          "type": "string"
        },
        {
          "indexed": false,
          "internalType": "string",
          "name": "doctor",
          "type": "string"
        },
        {
          "indexed": false,
          "internalType": "uint256",
          "name": "slotNo",
          "type": "uint256"
        },
        {
          "indexed": false,
          "internalType": "uint256",
          "name": "timestamp",
          "type": "uint256"
        }
      ],
      "name": "bookAppointment",
      "type": "event"
    },
    {
      "inputs": [
        {
          "internalType": "string",
          "name": "patient",
          "type": "string"
        },
        {
          "internalType": "string",
          "name": "doctor",
          "type": "string"
        },
        {
          "internalType": "uint256",
          "name": "slotNo",
          "type": "uint256"
        }
      ],
      "name": "addToBlockchain",
      "outputs": [],
      "stateMutability": "nonpayable",
      "type": "function"
    },
    {
      "inputs": [],
      "name": "getAllAppointments",
      "outputs": [
        {
          "components": [
            {
              "internalType": "string",
              "name": "patient",
              "type": "string"
            },
            {
              "internalType": "string",
              "name": "doctor",
              "type": "string"
            },
            {
              "internalType": "uint256",
              "name": "slotNo",
              "type": "uint256"
            },
            {
              "internalType": "uint256",
              "name": "timestamp",
              "type": "uint256"
            }
          ],
          "internalType": "struct Appointments.Appointment[]",
          "name": "",
          "type": "tuple[]"
        }
      ],
      "stateMutability": "view",
      "type": "function",
      "constant": true
    },
    {
      "inputs": [],
      "name": "getAppointmentsCount",
      "outputs": [
        {
          "internalType": "uint256",
          "name": "",
          "type": "uint256"
        }
      ],
      "stateMutability": "view",
      "type": "function",
      "constant": true
    }
  ],
  "bytecode": "0x608060405234801561001057600080fd5b50610b6b806100206000396000f3fe608060405234801561001057600080fd5b50600436106100415760003560e01c8063411b4ace146100465780637933570c1461006457806395b62d3d14610082575b600080fd5b61004e61009e565b60405161005b919061034f565b60405180910390f35b61006c6100a7565b6040516100799190610535565b60405180910390f35b61009c600480360381019061009791906106cc565b61023e565b005b60008054905090565b60606001805480602002602001604051908101604052809291908181526020016000905b8282101561023557838290600052602060002090600402016040518060800160405290816000820180546100fe90610786565b80601f016020809104026020016040519081016040528092919081815260200182805461012a90610786565b80156101775780601f1061014c57610100808354040283529160200191610177565b820191906000526020600020905b81548152906001019060200180831161015a57829003601f168201915b5050505050815260200160018201805461019090610786565b80601f01602080910402602001604051908101604052809291908181526020018280546101bc90610786565b80156102095780601f106101de57610100808354040283529160200191610209565b820191906000526020600020905b8154815290600101906020018083116101ec57829003601f168201915b5050505050815260200160028201548152602001600382015481525050815260200190600101906100cb565b50505050905090565b60056000541061024d57600080fd5b600160008082825461025f91906107e6565b925050819055506001604051806080016040528085815260200184815260200183815260200142815250908060018154018082558091505060019003906000526020600020906004020160009091909190915060008201518160000190816102c791906109c6565b5060208201518160010190816102dd91906109c6565b50604082015181600201556060820151816003015550507f24af967f86cfe8af22837903eb62b066524b94fe110165a0be145c8c16cc1e9a838383426040516103299493929190610ae2565b60405180910390a1505050565b6000819050919050565b61034981610336565b82525050565b60006020820190506103646000830184610340565b92915050565b600081519050919050565b600082825260208201905092915050565b6000819050602082019050919050565b600081519050919050565b600082825260208201905092915050565b60005b838110156103d05780820151818401526020810190506103b5565b60008484015250505050565b6000601f19601f8301169050919050565b60006103f882610396565b61040281856103a1565b93506104128185602086016103b2565b61041b816103dc565b840191505092915050565b61042f81610336565b82525050565b6000608083016000830151848203600086015261045282826103ed565b9150506020830151848203602086015261046c82826103ed565b91505060408301516104816040860182610426565b5060608301516104946060860182610426565b508091505092915050565b60006104ab8383610435565b905092915050565b6000602082019050919050565b60006104cb8261036a565b6104d58185610375565b9350836020820285016104e785610386565b8060005b858110156105235784840389528151610504858261049f565b945061050f836104b3565b925060208a019950506001810190506104eb565b50829750879550505050505092915050565b6000602082019050818103600083015261054f81846104c0565b905092915050565b6000604051905090565b600080fd5b600080fd5b600080fd5b600080fd5b7f4e487b7100000000000000000000000000000000000000000000000000000000600052604160045260246000fd5b6105ad826103dc565b810181811067ffffffffffffffff821117156105cc576105cb610575565b5b80604052505050565b60006105df610557565b90506105eb82826105a4565b919050565b600067ffffffffffffffff82111561060b5761060a610575565b5b610614826103dc565b9050602081019050919050565b82818337600083830152505050565b600061064361063e846105f0565b6105d5565b90508281526020810184848401111561065f5761065e610570565b5b61066a848285610621565b509392505050565b600082601f8301126106875761068661056b565b5b8135610697848260208601610630565b91505092915050565b6106a981610336565b81146106b457600080fd5b50565b6000813590506106c6816106a0565b92915050565b6000806000606084860312156106e5576106e4610561565b5b600084013567ffffffffffffffff81111561070357610702610566565b5b61070f86828701610672565b935050602084013567ffffffffffffffff8111156107305761072f610566565b5b61073c86828701610672565b925050604061074d868287016106b7565b9150509250925092565b7f4e487b7100000000000000000000000000000000000000000000000000000000600052602260045260246000fd5b6000600282049050600182168061079e57607f821691505b6020821081036107b1576107b0610757565b5b50919050565b7f4e487b7100000000000000000000000000000000000000000000000000000000600052601160045260246000fd5b60006107f182610336565b91506107fc83610336565b9250828201905080821115610814576108136107b7565b5b92915050565b60008190508160005260206000209050919050565b60006020601f8301049050919050565b600082821b905092915050565b60006008830261087c7fffffffffffffffffffffffffffffffffffffffffffffffffffffffffffffffff8261083f565b610886868361083f565b95508019841693508086168417925050509392505050565b6000819050919050565b60006108c36108be6108b984610336565b61089e565b610336565b9050919050565b6000819050919050565b6108dd836108a8565b6108f16108e9826108ca565b84845461084c565b825550505050565b600090565b6109066108f9565b6109118184846108d4565b505050565b5b818110156109355761092a6000826108fe565b600181019050610917565b5050565b601f82111561097a5761094b8161081a565b6109548461082f565b81016020851015610963578190505b61097761096f8561082f565b830182610916565b50505b505050565b600082821c905092915050565b600061099d6000198460080261097f565b1980831691505092915050565b60006109b6838361098c565b9150826002028217905092915050565b6109cf82610396565b67ffffffffffffffff8111156109e8576109e7610575565b5b6109f28254610786565b6109fd828285610939565b600060209050601f831160018114610a305760008415610a1e578287015190505b610a2885826109aa565b865550610a90565b601f198416610a3e8661081a565b60005b82811015610a6657848901518255600182019150602085019450602081019050610a41565b86831015610a835784890151610a7f601f89168261098c565b8355505b6001600288020188555050505b505050505050565b600082825260208201905092915050565b6000610ab482610396565b610abe8185610a98565b9350610ace8185602086016103b2565b610ad7816103dc565b840191505092915050565b60006080820190508181036000830152610afc8187610aa9565b90508181036020830152610b108186610aa9565b9050610b1f6040830185610340565b610b2c6060830184610340565b9594505050505056fea2646970667358221220c17ec0ca62ddb7d670fb14a996248e0298a20a10931e5926ee0437b0c1f6dcb064736f6c63430008120033",
  "immutableReferences": {},
  "source": "// SPDX-License-Identifier: UNLICENSED\r\npragma solidity ^0.8.9;\r\n\r\ncontract Appointments {\r\n    uint256 bookingsCounter;\r\n    struct Appointment {\r\n        string patient;\r\n        string doctor;\r\n        uint slotNo;\r\n        uint256 timestamp;\r\n    }\r\n\r\n    event bookAppointment(string patient, string doctor, uint slotNo, uint256 timestamp);\r\n\r\n    Appointment[] appointments;\r\n\r\n    function addToBlockchain(string memory patient,string memory doctor, uint slotNo) public {\r\n        require(bookingsCounter<5);\r\n        bookingsCounter+=1;\r\n        appointments.push(Appointment(patient, doctor, slotNo, block.timestamp));\r\n\r\n        emit bookAppointment(patient, doctor, slotNo, block.timestamp);\r\n    } \r\n\r\n    function getAllAppointments() public view returns (Appointment[] memory) {\r\n        return appointments;\r\n    } \r\n\r\n    function getAppointmentsCount() public view returns (uint256) {\r\n        return bookingsCounter;\r\n    } \r\n\r\n}",
  "sourcePath": "D:\\SASTRA\\Blockchain\\Healthcare App\\smart_contracts\\contracts\\Appointments.sol",
  "compiler": {
    "name": "solc",
    "version": "0.8.18+commit.87f61d96.Emscripten.clang"
  },
  "schemaVersion": "3.4.12",
  "updatedAt": "2023-03-06T10:44:07.446Z",
  "networkType": "ethereum",
  "devdoc": {
    "kind": "dev",
    "methods": {},
    "version": 1
  },
  "userdoc": {
    "kind": "user",
    "methods": {},
    "version": 1
  }
}