{
  "contractName": "Appointments",
  "abi": [
    {
      "anonymous": false,
      "inputs": [
        {
          "indexed": false,
          "internalType": "string",
          "name": "patient",
          "type": "string"
        },
        {
          "indexed": false,
          "internalType": "string",
          "name": "doctor",
          "type": "string"
        },
        {
          "indexed": false,
          "internalType": "uint256",
          "name": "doctorNo",
          "type": "uint256"
        },
        {
          "indexed": false,
          "internalType": "uint256",
          "name": "slotNo",
          "type": "uint256"
        },
        {
          "indexed": false,
          "internalType": "uint256",
          "name": "timestamp",
          "type": "uint256"
        }
      ],
      "name": "bookAppointment",
      "type": "event"
    },
    {
      "inputs": [
        {
          "internalType": "uint256",
          "name": "noOfDoctors",
          "type": "uint256"
        },
        {
          "internalType": "uint256",
          "name": "noOfSlots",
          "type": "uint256"
        }
      ],
      "name": "setDoctorsAndSlots",
      "outputs": [],
      "stateMutability": "nonpayable",
      "type": "function"
    },
    {
      "inputs": [
        {
          "internalType": "string",
          "name": "patient",
          "type": "string"
        },
        {
          "internalType": "string",
          "name": "doctor",
          "type": "string"
        },
        {
          "internalType": "uint256",
          "name": "doctorNo",
          "type": "uint256"
        },
        {
          "internalType": "uint256",
          "name": "slotNo",
          "type": "uint256"
        }
      ],
      "name": "addToBlockchain",
      "outputs": [],
      "stateMutability": "nonpayable",
      "type": "function"
    },
    {
      "inputs": [],
      "name": "getAllAppointments",
      "outputs": [
        {
          "components": [
            {
              "internalType": "string",
              "name": "patient",
              "type": "string"
            },
            {
              "internalType": "string",
              "name": "doctor",
              "type": "string"
            },
            {
              "internalType": "uint256",
              "name": "slotNo",
              "type": "uint256"
            },
            {
              "internalType": "uint256",
              "name": "timestamp",
              "type": "uint256"
            }
          ],
          "internalType": "struct Appointments.Appointment[]",
          "name": "",
          "type": "tuple[]"
        }
      ],
      "stateMutability": "view",
      "type": "function",
      "constant": true
    },
    {
      "inputs": [],
      "name": "getAppointmentsCount",
      "outputs": [
        {
          "internalType": "uint256",
          "name": "",
          "type": "uint256"
        }
      ],
      "stateMutability": "view",
      "type": "function",
      "constant": true
    }
  ],
  "bytecode": "0x608060405234801561001057600080fd5b50611291806100206000396000f3fe608060405234801561001057600080fd5b506004361061004c5760003560e01c8063411b4ace146100515780634718d1ea1461006f578063740daf621461008b5780637933570c146100a7575b600080fd5b6100596100c5565b6040516100669190610824565b60405180910390f35b6100896004803603810190610084919061087f565b6100ce565b005b6100a560048036038101906100a09190610a05565b610258565b005b6100af610505565b6040516100bc9190610c5e565b60405180910390f35b60008054905090565b81600281905550806003819055508167ffffffffffffffff8111156100f6576100f56108da565b5b60405190808252806020026020018201604052801561012957816020015b60608152602001906001900390816101145790505b506001908051906020019061013f92919061069c565b5060005b82811015610253578167ffffffffffffffff811115610165576101646108da565b5b6040519080825280602002602001820160405280156101935781602001602082028036833780820191505090505b50600182815481106101a8576101a7610c80565b5b9060005260206000200190805190602001906101c59291906106fc565b5060005b8281101561023f576000600183815481106101e7576101e6610c80565b5b90600052602060002001828154811061020357610202610c80565b5b90600052602060002090602091828204019190066101000a81548160ff021916908315150217905550808061023790610cde565b9150506101c9565b50808061024b90610cde565b915050610143565b505050565b600354811115801561026a5750600081115b6102a9576040517f08c379a00000000000000000000000000000000000000000000000000000000081526004016102a090610d83565b60405180910390fd5b60025482111580156102bb5750600082115b6102fa576040517f08c379a00000000000000000000000000000000000000000000000000000000081526004016102f190610def565b60405180910390fd5b600015156001808461030c9190610e0f565b8154811061031d5761031c610c80565b5b906000526020600020016001836103349190610e0f565b8154811061034557610344610c80565b5b90600052602060002090602091828204019190069054906101000a900460ff161515146103a7576040517f08c379a000000000000000000000000000000000000000000000000000000000815260040161039e90610e8f565b60405180910390fd5b60016000808282546103b99190610eaf565b925050819055506001806001846103d09190610e0f565b815481106103e1576103e0610c80565b5b906000526020600020016001836103f89190610e0f565b8154811061040957610408610c80565b5b90600052602060002090602091828204019190066101000a81548160ff02191690831515021790555060046040518060800160405280868152602001858152602001838152602001428152509080600181540180825580915050600190039060005260206000209060040201600090919091909150600082015181600001908161049391906110ef565b5060208201518160010190816104a991906110ef565b50604082015181600201556060820151816003015550507f14bd48778f64c8d2763097e6ae695bb1473610301b07f03b35ed046300c2560f84848484426040516104f79594939291906111fa565b60405180910390a150505050565b60606004805480602002602001604051908101604052809291908181526020016000905b82821015610693578382906000526020600020906004020160405180608001604052908160008201805461055c90610f12565b80601f016020809104026020016040519081016040528092919081815260200182805461058890610f12565b80156105d55780601f106105aa576101008083540402835291602001916105d5565b820191906000526020600020905b8154815290600101906020018083116105b857829003601f168201915b505050505081526020016001820180546105ee90610f12565b80601f016020809104026020016040519081016040528092919081815260200182805461061a90610f12565b80156106675780601f1061063c57610100808354040283529160200191610667565b820191906000526020600020905b81548152906001019060200180831161064a57829003601f168201915b505050505081526020016002820154815260200160038201548152505081526020019060010190610529565b50505050905090565b8280548282559060005260206000209081019282156106eb579160200282015b828111156106ea5782518290805190602001906106da9291906106fc565b50916020019190600101906106bc565b5b5090506106f891906107a2565b5090565b82805482825590600052602060002090601f016020900481019282156107915791602002820160005b8382111561076257835183826101000a81548160ff0219169083151502179055509260200192600101602081600001049283019260010302610725565b801561078f5782816101000a81549060ff0219169055600101602081600001049283019260010302610762565b505b50905061079e91906107c6565b5090565b5b808211156107c257600081816107b991906107e3565b506001016107a3565b5090565b5b808211156107df5760008160009055506001016107c7565b5090565b50805460008255601f01602090049060005260206000209081019061080891906107c6565b50565b6000819050919050565b61081e8161080b565b82525050565b60006020820190506108396000830184610815565b92915050565b6000604051905090565b600080fd5b600080fd5b61085c8161080b565b811461086757600080fd5b50565b60008135905061087981610853565b92915050565b6000806040838503121561089657610895610849565b5b60006108a48582860161086a565b92505060206108b58582860161086a565b9150509250929050565b600080fd5b600080fd5b6000601f19601f8301169050919050565b7f4e487b7100000000000000000000000000000000000000000000000000000000600052604160045260246000fd5b610912826108c9565b810181811067ffffffffffffffff82111715610931576109306108da565b5b80604052505050565b600061094461083f565b90506109508282610909565b919050565b600067ffffffffffffffff8211156109705761096f6108da565b5b610979826108c9565b9050602081019050919050565b82818337600083830152505050565b60006109a86109a384610955565b61093a565b9050828152602081018484840111156109c4576109c36108c4565b5b6109cf848285610986565b509392505050565b600082601f8301126109ec576109eb6108bf565b5b81356109fc848260208601610995565b91505092915050565b60008060008060808587031215610a1f57610a1e610849565b5b600085013567ffffffffffffffff811115610a3d57610a3c61084e565b5b610a49878288016109d7565b945050602085013567ffffffffffffffff811115610a6a57610a6961084e565b5b610a76878288016109d7565b9350506040610a878782880161086a565b9250506060610a988782880161086a565b91505092959194509250565b600081519050919050565b600082825260208201905092915050565b6000819050602082019050919050565b600081519050919050565b600082825260208201905092915050565b60005b83811015610b0a578082015181840152602081019050610aef565b60008484015250505050565b6000610b2182610ad0565b610b2b8185610adb565b9350610b3b818560208601610aec565b610b44816108c9565b840191505092915050565b610b588161080b565b82525050565b60006080830160008301518482036000860152610b7b8282610b16565b91505060208301518482036020860152610b958282610b16565b9150506040830151610baa6040860182610b4f565b506060830151610bbd6060860182610b4f565b508091505092915050565b6000610bd48383610b5e565b905092915050565b6000602082019050919050565b6000610bf482610aa4565b610bfe8185610aaf565b935083602082028501610c1085610ac0565b8060005b85811015610c4c5784840389528151610c2d8582610bc8565b9450610c3883610bdc565b925060208a01995050600181019050610c14565b50829750879550505050505092915050565b60006020820190508181036000830152610c788184610be9565b905092915050565b7f4e487b7100000000000000000000000000000000000000000000000000000000600052603260045260246000fd5b7f4e487b7100000000000000000000000000000000000000000000000000000000600052601160045260246000fd5b6000610ce98261080b565b91507fffffffffffffffffffffffffffffffffffffffffffffffffffffffffffffffff8203610d1b57610d1a610caf565b5b600182019050919050565b600082825260208201905092915050565b7f496e76616c696420736c6f74206e756d62657200000000000000000000000000600082015250565b6000610d6d601383610d26565b9150610d7882610d37565b602082019050919050565b60006020820190508181036000830152610d9c81610d60565b9050919050565b7f496e76616c696420646f63746f72206e756d6265720000000000000000000000600082015250565b6000610dd9601583610d26565b9150610de482610da3565b602082019050919050565b60006020820190508181036000830152610e0881610dcc565b9050919050565b6000610e1a8261080b565b9150610e258361080b565b9250828203905081811115610e3d57610e3c610caf565b5b92915050565b7f536c6f7420616c72656164792066696c6c656400000000000000000000000000600082015250565b6000610e79601383610d26565b9150610e8482610e43565b602082019050919050565b60006020820190508181036000830152610ea881610e6c565b9050919050565b6000610eba8261080b565b9150610ec58361080b565b9250828201905080821115610edd57610edc610caf565b5b92915050565b7f4e487b7100000000000000000000000000000000000000000000000000000000600052602260045260246000fd5b60006002820490506001821680610f2a57607f821691505b602082108103610f3d57610f3c610ee3565b5b50919050565b60008190508160005260206000209050919050565b60006020601f8301049050919050565b600082821b905092915050565b600060088302610fa57fffffffffffffffffffffffffffffffffffffffffffffffffffffffffffffffff82610f68565b610faf8683610f68565b95508019841693508086168417925050509392505050565b6000819050919050565b6000610fec610fe7610fe28461080b565b610fc7565b61080b565b9050919050565b6000819050919050565b61100683610fd1565b61101a61101282610ff3565b848454610f75565b825550505050565b600090565b61102f611022565b61103a818484610ffd565b505050565b5b8181101561105e57611053600082611027565b600181019050611040565b5050565b601f8211156110a35761107481610f43565b61107d84610f58565b8101602085101561108c578190505b6110a061109885610f58565b83018261103f565b50505b505050565b600082821c905092915050565b60006110c6600019846008026110a8565b1980831691505092915050565b60006110df83836110b5565b9150826002028217905092915050565b6110f882610ad0565b67ffffffffffffffff811115611111576111106108da565b5b61111b8254610f12565b611126828285611062565b600060209050601f8311600181146111595760008415611147578287015190505b61115185826110d3565b8655506111b9565b601f19841661116786610f43565b60005b8281101561118f5784890151825560018201915060208501945060208101905061116a565b868310156111ac57848901516111a8601f8916826110b5565b8355505b6001600288020188555050505b505050505050565b60006111cc82610ad0565b6111d68185610d26565b93506111e6818560208601610aec565b6111ef816108c9565b840191505092915050565b600060a082019050818103600083015261121481886111c1565b9050818103602083015261122881876111c1565b90506112376040830186610815565b6112446060830185610815565b6112516080830184610815565b969550505050505056fea2646970667358221220a7f25c10e73006193168e5c5b474607eb5d3b270591da9d4b83a23b14224d17364736f6c63430008120033",
  "immutableReferences": {},
  "source": "// SPDX-License-Identifier: UNLICENSED\r\npragma solidity ^0.8.9;\r\n\r\ncontract Appointments {\r\n\r\n    uint256 bookingsCounter;\r\n    bool[][] slotsFilled;\r\n    uint doctorsCount;\r\n    uint slotsCount;\r\n    struct Appointment {\r\n        string patient;\r\n        string doctor;\r\n        uint slotNo;\r\n        uint256 timestamp;\r\n    }\r\n\r\n    event bookAppointment(string patient, string doctor, uint doctorNo, uint slotNo, uint256 timestamp);\r\n\r\n    Appointment[] appointments;\r\n\r\n    function setDoctorsAndSlots(uint noOfDoctors, uint noOfSlots) public{\r\n        doctorsCount = noOfDoctors;\r\n        slotsCount = noOfSlots;\r\n        slotsFilled = new bool[][](noOfDoctors);\r\n        for (uint i = 0; i < noOfDoctors; i++) {\r\n            slotsFilled[i] = new bool[](noOfSlots);\r\n            for (uint j = 0; j < noOfSlots; j++) {\r\n                slotsFilled[i][j] = false;\r\n            }\r\n        }\r\n    }\r\n\r\n    function addToBlockchain(string memory patient,string memory doctor, uint doctorNo, uint slotNo) public {\r\n        require(slotNo<=slotsCount && slotNo > 0,\"Invalid slot number\");\r\n        require(doctorNo<=doctorsCount && doctorNo > 0,\"Invalid doctor number\");\r\n        require(slotsFilled[doctorNo-1][slotNo-1]==false,\"Slot already filled\");\r\n        bookingsCounter+=1;\r\n        slotsFilled[doctorNo-1][slotNo-1]=true;\r\n        appointments.push(Appointment(patient, doctor, slotNo, block.timestamp));\r\n\r\n        emit bookAppointment(patient, doctor, doctorNo, slotNo, block.timestamp);\r\n    } \r\n\r\n    function getAllAppointments() public view returns (Appointment[] memory) {\r\n        return appointments;\r\n    } \r\n\r\n    function getAppointmentsCount() public view returns (uint256) {\r\n        return bookingsCounter;\r\n    } \r\n\r\n}",
  "sourcePath": "C:\\Users\\Mahita\\Desktop\\COLLEGE\\SEM 6\\MINI PROJECT\\Healthcare-dapp\\Healthcare-dApp\\smart_contracts\\contracts\\Appointments.sol",
  "compiler": {
    "name": "solc",
    "version": "0.8.18+commit.87f61d96.Emscripten.clang"
  },
  "schemaVersion": "3.4.12",
  "updatedAt": "2023-03-21T12:39:39.616Z",
  "networkType": "ethereum",
  "devdoc": {
    "kind": "dev",
    "methods": {},
    "version": 1
  },
  "userdoc": {
    "kind": "user",
    "methods": {},
    "version": 1
  }
}