{
  "contractName": "DrugSales",
  "abi": [
    {
      "anonymous": false,
      "inputs": [
        {
          "indexed": false,
          "internalType": "string",
          "name": "patient",
          "type": "string"
        },
        {
          "indexed": false,
          "internalType": "string",
          "name": "doctor",
          "type": "string"
        },
        {
          "indexed": false,
          "internalType": "string",
          "name": "pharmacist",
          "type": "string"
        },
        {
          "indexed": false,
          "internalType": "string[][]",
          "name": "medicines",
          "type": "string[][]"
        },
        {
          "indexed": false,
          "internalType": "uint256",
          "name": "timestamp",
          "type": "uint256"
        }
      ],
      "name": "generateReceipt",
      "type": "event"
    },
    {
      "inputs": [
        {
          "internalType": "string",
          "name": "patient",
          "type": "string"
        },
        {
          "internalType": "string",
          "name": "doctor",
          "type": "string"
        },
        {
          "internalType": "string",
          "name": "pharmacist",
          "type": "string"
        },
        {
          "internalType": "string[][]",
          "name": "medicines",
          "type": "string[][]"
        }
      ],
      "name": "addToBlockchain",
      "outputs": [],
      "stateMutability": "nonpayable",
      "type": "function"
    },
    {
      "inputs": [],
      "name": "getAllReceipts",
      "outputs": [
        {
          "components": [
            {
              "internalType": "string",
              "name": "patient",
              "type": "string"
            },
            {
              "internalType": "string",
              "name": "doctor",
              "type": "string"
            },
            {
              "internalType": "string",
              "name": "pharmacist",
              "type": "string"
            },
            {
              "internalType": "string[][]",
              "name": "medicines",
              "type": "string[][]"
            },
            {
              "internalType": "uint256",
              "name": "timestamp",
              "type": "uint256"
            }
          ],
          "internalType": "struct DrugSales.Receipt[]",
          "name": "",
          "type": "tuple[]"
        }
      ],
      "stateMutability": "view",
      "type": "function",
      "constant": true
    },
    {
      "inputs": [],
      "name": "getReceiptsCount",
      "outputs": [
        {
          "internalType": "uint256",
          "name": "",
          "type": "uint256"
        }
      ],
      "stateMutability": "view",
      "type": "function",
      "constant": true
    }
  ],
  "bytecode": "0x608060405234801561001057600080fd5b506112e3806100206000396000f3fe608060405234801561001057600080fd5b50600436106100415760003560e01c80636dc37f9414610046578063b926be2014610064578063cfb44a4914610082575b600080fd5b61004e61009e565b60405161005b9190610699565b60405180910390f35b61006c6100a7565b6040516100799190610a24565b60405180910390f35b61009c60048036038101906100979190610d56565b6103e6565b005b60008054905090565b60606001805480602002602001604051908101604052809291908181526020016000905b828210156103dd57838290600052602060002090600502016040518060a00160405290816000820180546100fe90610e5c565b80601f016020809104026020016040519081016040528092919081815260200182805461012a90610e5c565b80156101775780601f1061014c57610100808354040283529160200191610177565b820191906000526020600020905b81548152906001019060200180831161015a57829003601f168201915b5050505050815260200160018201805461019090610e5c565b80601f01602080910402602001604051908101604052809291908181526020018280546101bc90610e5c565b80156102095780601f106101de57610100808354040283529160200191610209565b820191906000526020600020905b8154815290600101906020018083116101ec57829003601f168201915b5050505050815260200160028201805461022290610e5c565b80601f016020809104026020016040519081016040528092919081815260200182805461024e90610e5c565b801561029b5780601f106102705761010080835404028352916020019161029b565b820191906000526020600020905b81548152906001019060200180831161027e57829003601f168201915b5050505050815260200160038201805480602002602001604051908101604052809291908181526020016000905b828210156103bc57838290600052602060002001805480602002602001604051908101604052809291908181526020016000905b828210156103a957838290600052602060002001805461031c90610e5c565b80601f016020809104026020016040519081016040528092919081815260200182805461034890610e5c565b80156103955780601f1061036a57610100808354040283529160200191610395565b820191906000526020600020905b81548152906001019060200180831161037857829003601f168201915b5050505050815260200190600101906102fd565b50505050815260200190600101906102c9565b505050508152602001600482015481525050815260200190600101906100cb565b50505050905090565b60016000808282546103f89190610ebc565b9250508190555060016040518060a001604052808681526020018581526020018481526020018381526020014281525090806001815401808255809150506001900390600052602060002090600502016000909190919091506000820151816000019081610466919061109c565b50602082015181600101908161047c919061109c565b506040820151816002019081610492919061109c565b5060608201518160030190805190602001906104af929190610501565b506080820151816004015550507f98fdfbc444566c459506309a0daf69b96fbaf2ac0780eb008be3994d79f9870a84848484426040516104f395949392919061123e565b60405180910390a150505050565b828054828255906000526020600020908101928215610550579160200282015b8281111561054f57825182908051906020019061053f929190610561565b5091602001919060010190610521565b5b50905061055d91906105ba565b5090565b8280548282559060005260206000209081019282156105a9579160200282015b828111156105a8578251829081610598919061109c565b5091602001919060010190610581565b5b5090506105b691906105de565b5090565b5b808211156105da57600081816105d19190610602565b506001016105bb565b5090565b5b808211156105fe57600081816105f59190610623565b506001016105df565b5090565b508054600082559060005260206000209081019061062091906105de565b50565b50805461062f90610e5c565b6000825580601f106106415750610660565b601f01602090049060005260206000209081019061065f9190610663565b5b50565b5b8082111561067c576000816000905550600101610664565b5090565b6000819050919050565b61069381610680565b82525050565b60006020820190506106ae600083018461068a565b92915050565b600081519050919050565b600082825260208201905092915050565b6000819050602082019050919050565b600081519050919050565b600082825260208201905092915050565b60005b8381101561071a5780820151818401526020810190506106ff565b60008484015250505050565b6000601f19601f8301169050919050565b6000610742826106e0565b61074c81856106eb565b935061075c8185602086016106fc565b61076581610726565b840191505092915050565b600081519050919050565b600082825260208201905092915050565b6000819050602082019050919050565b600081519050919050565b600082825260208201905092915050565b6000819050602082019050919050565b60006107d48383610737565b905092915050565b6000602082019050919050565b60006107f48261079c565b6107fe81856107a7565b935083602082028501610810856107b8565b8060005b8581101561084c578484038952815161082d85826107c8565b9450610838836107dc565b925060208a01995050600181019050610814565b50829750879550505050505092915050565b600061086a83836107e9565b905092915050565b6000602082019050919050565b600061088a82610770565b610894818561077b565b9350836020820285016108a68561078c565b8060005b858110156108e257848403895281516108c3858261085e565b94506108ce83610872565b925060208a019950506001810190506108aa565b50829750879550505050505092915050565b6108fd81610680565b82525050565b600060a08301600083015184820360008601526109208282610737565b9150506020830151848203602086015261093a8282610737565b915050604083015184820360408601526109548282610737565b9150506060830151848203606086015261096e828261087f565b915050608083015161098360808601826108f4565b508091505092915050565b600061099a8383610903565b905092915050565b6000602082019050919050565b60006109ba826106b4565b6109c481856106bf565b9350836020820285016109d6856106d0565b8060005b85811015610a1257848403895281516109f3858261098e565b94506109fe836109a2565b925060208a019950506001810190506109da565b50829750879550505050505092915050565b60006020820190508181036000830152610a3e81846109af565b905092915050565b6000604051905090565b600080fd5b600080fd5b600080fd5b600080fd5b7f4e487b7100000000000000000000000000000000000000000000000000000000600052604160045260246000fd5b610a9c82610726565b810181811067ffffffffffffffff82111715610abb57610aba610a64565b5b80604052505050565b6000610ace610a46565b9050610ada8282610a93565b919050565b600067ffffffffffffffff821115610afa57610af9610a64565b5b610b0382610726565b9050602081019050919050565b82818337600083830152505050565b6000610b32610b2d84610adf565b610ac4565b905082815260208101848484011115610b4e57610b4d610a5f565b5b610b59848285610b10565b509392505050565b600082601f830112610b7657610b75610a5a565b5b8135610b86848260208601610b1f565b91505092915050565b600067ffffffffffffffff821115610baa57610ba9610a64565b5b602082029050602081019050919050565b600080fd5b600067ffffffffffffffff821115610bdb57610bda610a64565b5b602082029050602081019050919050565b6000610bff610bfa84610bc0565b610ac4565b90508083825260208201905060208402830185811115610c2257610c21610bbb565b5b835b81811015610c6957803567ffffffffffffffff811115610c4757610c46610a5a565b5b808601610c548982610b61565b85526020850194505050602081019050610c24565b5050509392505050565b600082601f830112610c8857610c87610a5a565b5b8135610c98848260208601610bec565b91505092915050565b6000610cb4610caf84610b8f565b610ac4565b90508083825260208201905060208402830185811115610cd757610cd6610bbb565b5b835b81811015610d1e57803567ffffffffffffffff811115610cfc57610cfb610a5a565b5b808601610d098982610c73565b85526020850194505050602081019050610cd9565b5050509392505050565b600082601f830112610d3d57610d3c610a5a565b5b8135610d4d848260208601610ca1565b91505092915050565b60008060008060808587031215610d7057610d6f610a50565b5b600085013567ffffffffffffffff811115610d8e57610d8d610a55565b5b610d9a87828801610b61565b945050602085013567ffffffffffffffff811115610dbb57610dba610a55565b5b610dc787828801610b61565b935050604085013567ffffffffffffffff811115610de857610de7610a55565b5b610df487828801610b61565b925050606085013567ffffffffffffffff811115610e1557610e14610a55565b5b610e2187828801610d28565b91505092959194509250565b7f4e487b7100000000000000000000000000000000000000000000000000000000600052602260045260246000fd5b60006002820490506001821680610e7457607f821691505b602082108103610e8757610e86610e2d565b5b50919050565b7f4e487b7100000000000000000000000000000000000000000000000000000000600052601160045260246000fd5b6000610ec782610680565b9150610ed283610680565b9250828201905080821115610eea57610ee9610e8d565b5b92915050565b60008190508160005260206000209050919050565b60006020601f8301049050919050565b600082821b905092915050565b600060088302610f527fffffffffffffffffffffffffffffffffffffffffffffffffffffffffffffffff82610f15565b610f5c8683610f15565b95508019841693508086168417925050509392505050565b6000819050919050565b6000610f99610f94610f8f84610680565b610f74565b610680565b9050919050565b6000819050919050565b610fb383610f7e565b610fc7610fbf82610fa0565b848454610f22565b825550505050565b600090565b610fdc610fcf565b610fe7818484610faa565b505050565b5b8181101561100b57611000600082610fd4565b600181019050610fed565b5050565b601f8211156110505761102181610ef0565b61102a84610f05565b81016020851015611039578190505b61104d61104585610f05565b830182610fec565b50505b505050565b600082821c905092915050565b600061107360001984600802611055565b1980831691505092915050565b600061108c8383611062565b9150826002028217905092915050565b6110a5826106e0565b67ffffffffffffffff8111156110be576110bd610a64565b5b6110c88254610e5c565b6110d382828561100f565b600060209050601f83116001811461110657600084156110f4578287015190505b6110fe8582611080565b865550611166565b601f19841661111486610ef0565b60005b8281101561113c57848901518255600182019150602085019450602081019050611117565b868310156111595784890151611155601f891682611062565b8355505b6001600288020188555050505b505050505050565b600082825260208201905092915050565b600061118a826106e0565b611194818561116e565b93506111a48185602086016106fc565b6111ad81610726565b840191505092915050565b600082825260208201905092915050565b60006111d482610770565b6111de81856111b8565b9350836020820285016111f08561078c565b8060005b8581101561122c578484038952815161120d858261085e565b945061121883610872565b925060208a019950506001810190506111f4565b50829750879550505050505092915050565b600060a0820190508181036000830152611258818861117f565b9050818103602083015261126c818761117f565b90508181036040830152611280818661117f565b9050818103606083015261129481856111c9565b90506112a3608083018461068a565b969550505050505056fea264697066735822122096f2c5c37c13effbf928b7b0e74fd17a3b58f8293a696a1a5ca113308e4488bf64736f6c63430008120033",
  "immutableReferences": {},
  "source": "// SPDX-License-Identifier: UNLICENSED\r\npragma solidity ^0.8.9;\r\n\r\ncontract DrugSales{\r\n    uint256 salesCounter;\r\n\r\n    struct Receipt{\r\n        string patient;\r\n        string doctor;\r\n        string pharmacist;\r\n        string[][] medicines;\r\n        uint256 timestamp;\r\n    }\r\n\r\n    Receipt[] receipts;\r\n    event generateReceipt(string patient, string doctor, string pharmacist, string[][] medicines, uint256 timestamp);\r\n\r\n    function addToBlockchain(string memory patient,string memory doctor, string memory pharmacist, string[][] memory medicines) public {\r\n        salesCounter+=1;\r\n        receipts.push(Receipt(patient, doctor, pharmacist, medicines, block.timestamp));\r\n\r\n        emit generateReceipt(patient, doctor, pharmacist, medicines, block.timestamp);\r\n    }\r\n\r\n    function getAllReceipts() public view returns (Receipt[] memory) {\r\n        return receipts;\r\n    } \r\n\r\n    function getReceiptsCount() public view returns (uint256){\r\n        return salesCounter;\r\n    }\r\n}",
  "sourcePath": "D:\\SASTRA\\Blockchain\\Healthcare dApp\\smart_contracts\\contracts\\DrugSales.sol",
  "compiler": {
    "name": "solc",
    "version": "0.8.18+commit.87f61d96.Emscripten.clang"
  },
  "schemaVersion": "3.4.12",
  "updatedAt": "2023-03-08T13:43:25.633Z",
  "networkType": "ethereum",
  "devdoc": {
    "kind": "dev",
    "methods": {},
    "version": 1
  },
  "userdoc": {
    "kind": "user",
    "methods": {},
    "version": 1
  }
}